{
  "contractName": "MerkleBros",
  "abi": [
    {
      "constant": true,
      "inputs": [
        {
          "name": "",
          "type": "uint256"
        }
      ],
      "name": "auctionIdToAuction",
      "outputs": [
        {
          "name": "auctionId",
          "type": "uint256"
        },
        {
          "name": "tokenId",
          "type": "uint256"
        },
        {
          "name": "price",
          "type": "uint256"
        },
        {
          "name": "lastActiveBlock",
          "type": "uint256"
        },
        {
          "name": "balanceOwed",
          "type": "uint256"
        },
        {
          "name": "owner",
          "type": "address"
        },
        {
          "name": "cardPrototypeId",
          "type": "uint32"
        },
        {
          "name": "auctionActive",
          "type": "bool"
        }
      ],
      "payable": false,
      "stateMutability": "view",
      "type": "function"
    },
    {
      "constant": true,
      "inputs": [],
      "name": "auctionFee",
      "outputs": [
        {
          "name": "",
          "type": "uint256"
        }
      ],
      "payable": false,
      "stateMutability": "view",
      "type": "function"
    },
    {
      "constant": true,
      "inputs": [
        {
          "name": "",
          "type": "address"
        }
      ],
      "name": "balances",
      "outputs": [
        {
          "name": "",
          "type": "uint256"
        }
      ],
      "payable": false,
      "stateMutability": "view",
      "type": "function"
    },
    {
      "constant": true,
      "inputs": [],
      "name": "auctionCount",
      "outputs": [
        {
          "name": "",
          "type": "uint256"
        }
      ],
      "payable": false,
      "stateMutability": "view",
      "type": "function"
    },
    {
      "constant": true,
      "inputs": [
        {
          "name": "",
          "type": "uint8"
        }
      ],
      "name": "cardActions",
      "outputs": [
        {
          "name": "",
          "type": "bytes32"
        }
      ],
      "payable": false,
      "stateMutability": "view",
      "type": "function"
    },
    {
      "constant": true,
      "inputs": [
        {
          "name": "",
          "type": "uint256"
        }
      ],
      "name": "tokenIdToAuctionId",
      "outputs": [
        {
          "name": "",
          "type": "uint256"
        }
      ],
      "payable": false,
      "stateMutability": "view",
      "type": "function"
    },
    {
      "constant": true,
      "inputs": [
        {
          "name": "",
          "type": "uint32"
        }
      ],
      "name": "setExists",
      "outputs": [
        {
          "name": "",
          "type": "bool"
        }
      ],
      "payable": false,
      "stateMutability": "view",
      "type": "function"
    },
    {
      "constant": true,
      "inputs": [
        {
          "name": "",
          "type": "uint256"
        }
      ],
      "name": "tokenIdToCardPrototypeId",
      "outputs": [
        {
          "name": "",
          "type": "uint32"
        }
      ],
      "payable": false,
      "stateMutability": "view",
      "type": "function"
    },
    {
      "constant": true,
      "inputs": [],
      "name": "cardPackAmount",
      "outputs": [
        {
          "name": "",
          "type": "uint256"
        }
      ],
      "payable": false,
      "stateMutability": "view",
      "type": "function"
    },
    {
      "constant": true,
      "inputs": [],
      "name": "cardPackPrice",
      "outputs": [
        {
          "name": "",
          "type": "uint256"
        }
      ],
      "payable": false,
      "stateMutability": "view",
      "type": "function"
    },
    {
      "constant": true,
      "inputs": [
        {
          "name": "",
          "type": "uint32"
        }
      ],
      "name": "cardAmounts",
      "outputs": [
        {
          "name": "",
          "type": "uint256"
        }
      ],
      "payable": false,
      "stateMutability": "view",
      "type": "function"
    },
    {
      "constant": true,
      "inputs": [],
      "name": "contractBalanceOwed",
      "outputs": [
        {
          "name": "",
          "type": "uint256"
        }
      ],
      "payable": false,
      "stateMutability": "view",
      "type": "function"
    },
    {
      "constant": true,
      "inputs": [],
      "name": "freeTransferAllowed",
      "outputs": [
        {
          "name": "",
          "type": "bool"
        }
      ],
      "payable": false,
      "stateMutability": "view",
      "type": "function"
    },
    {
      "constant": true,
      "inputs": [
        {
          "name": "",
          "type": "uint256"
        }
      ],
      "name": "auctionIdToOwner",
      "outputs": [
        {
          "name": "",
          "type": "address"
        }
      ],
      "payable": false,
      "stateMutability": "view",
      "type": "function"
    },
    {
      "constant": true,
      "inputs": [],
      "name": "auctionAddress",
      "outputs": [
        {
          "name": "",
          "type": "address"
        }
      ],
      "payable": false,
      "stateMutability": "view",
      "type": "function"
    },
    {
      "constant": true,
      "inputs": [],
      "name": "cardPrototypeCount",
      "outputs": [
        {
          "name": "",
          "type": "uint32"
        }
      ],
      "payable": false,
      "stateMutability": "view",
      "type": "function"
    },
    {
      "constant": true,
      "inputs": [
        {
          "name": "",
          "type": "uint256"
        }
      ],
      "name": "auctionIdToCardPrototypeId",
      "outputs": [
        {
          "name": "",
          "type": "uint32"
        }
      ],
      "payable": false,
      "stateMutability": "view",
      "type": "function"
    },
    {
      "constant": true,
      "inputs": [],
      "name": "upgradeAddress",
      "outputs": [
        {
          "name": "",
          "type": "address"
        }
      ],
      "payable": false,
      "stateMutability": "view",
      "type": "function"
    },
    {
      "constant": true,
      "inputs": [
        {
          "name": "",
          "type": "address"
        }
      ],
      "name": "admin",
      "outputs": [
        {
          "name": "",
          "type": "bool"
        }
      ],
      "payable": false,
      "stateMutability": "view",
      "type": "function"
    },
    {
      "constant": true,
      "inputs": [
        {
          "name": "",
          "type": "uint256"
        }
      ],
      "name": "auctionActive",
      "outputs": [
        {
          "name": "",
          "type": "bool"
        }
      ],
      "payable": false,
      "stateMutability": "view",
      "type": "function"
    },
    {
      "constant": true,
      "inputs": [
        {
          "name": "",
          "type": "uint256"
        }
      ],
      "name": "tokenIdToOwnerArrayIndex",
      "outputs": [
        {
          "name": "",
          "type": "uint256"
        }
      ],
      "payable": false,
      "stateMutability": "view",
      "type": "function"
    },
    {
      "constant": true,
      "inputs": [
        {
          "name": "",
          "type": "uint32"
        }
      ],
      "name": "artUrl",
      "outputs": [
        {
          "name": "",
          "type": "bytes32"
        }
      ],
      "payable": false,
      "stateMutability": "view",
      "type": "function"
    },
    {
      "constant": true,
      "inputs": [
        {
          "name": "",
          "type": "uint32"
        }
      ],
      "name": "cardPrices",
      "outputs": [
        {
          "name": "",
          "type": "uint256"
        }
      ],
      "payable": false,
      "stateMutability": "view",
      "type": "function"
    },
    {
      "constant": true,
      "inputs": [],
      "name": "allowTotem",
      "outputs": [
        {
          "name": "",
          "type": "bool"
        }
      ],
      "payable": false,
      "stateMutability": "view",
      "type": "function"
    },
    {
      "constant": true,
      "inputs": [
        {
          "name": "",
          "type": "uint256"
        }
      ],
      "name": "tokenIdToOwner",
      "outputs": [
        {
          "name": "",
          "type": "address"
        }
      ],
      "payable": false,
      "stateMutability": "view",
      "type": "function"
    },
    {
      "constant": true,
      "inputs": [
        {
          "name": "",
          "type": "uint256"
        },
        {
          "name": "",
          "type": "uint32"
        }
      ],
      "name": "totemUsed",
      "outputs": [
        {
          "name": "",
          "type": "bool"
        }
      ],
      "payable": false,
      "stateMutability": "view",
      "type": "function"
    },
    {
      "constant": true,
      "inputs": [
        {
          "name": "",
          "type": "address"
        },
        {
          "name": "",
          "type": "uint256"
        }
      ],
      "name": "ownerToTokenIdArray",
      "outputs": [
        {
          "name": "",
          "type": "uint256"
        }
      ],
      "payable": false,
      "stateMutability": "view",
      "type": "function"
    },
    {
      "constant": true,
      "inputs": [
        {
          "name": "",
          "type": "address"
        }
      ],
      "name": "governance",
      "outputs": [
        {
          "name": "",
          "type": "bool"
        }
      ],
      "payable": false,
      "stateMutability": "view",
      "type": "function"
    },
    {
      "constant": true,
      "inputs": [
        {
          "name": "",
          "type": "uint256"
        }
      ],
      "name": "auctionIdToBalanceOwed",
      "outputs": [
        {
          "name": "",
          "type": "uint256"
        }
      ],
      "payable": false,
      "stateMutability": "view",
      "type": "function"
    },
    {
      "constant": true,
      "inputs": [],
      "name": "owner",
      "outputs": [
        {
          "name": "",
          "type": "address"
        }
      ],
      "payable": false,
      "stateMutability": "view",
      "type": "function"
    },
    {
      "constant": true,
      "inputs": [],
      "name": "artAddress",
      "outputs": [
        {
          "name": "",
          "type": "address"
        }
      ],
      "payable": false,
      "stateMutability": "view",
      "type": "function"
    },
    {
      "constant": true,
      "inputs": [],
      "name": "cardActionsCount",
      "outputs": [
        {
          "name": "",
          "type": "uint8"
        }
      ],
      "payable": false,
      "stateMutability": "view",
      "type": "function"
    },
    {
      "constant": true,
      "inputs": [
        {
          "name": "",
          "type": "uint256"
        }
      ],
      "name": "auctionIdToTokenId",
      "outputs": [
        {
          "name": "",
          "type": "uint256"
        }
      ],
      "payable": false,
      "stateMutability": "view",
      "type": "function"
    },
    {
      "constant": true,
      "inputs": [
        {
          "name": "",
          "type": "uint32"
        }
      ],
      "name": "setTitles",
      "outputs": [
        {
          "name": "",
          "type": "bytes32"
        }
      ],
      "payable": false,
      "stateMutability": "view",
      "type": "function"
    },
    {
      "constant": true,
      "inputs": [],
      "name": "tokenCount",
      "outputs": [
        {
          "name": "",
          "type": "uint256"
        }
      ],
      "payable": false,
      "stateMutability": "view",
      "type": "function"
    },
    {
      "constant": true,
      "inputs": [
        {
          "name": "",
          "type": "uint32"
        }
      ],
      "name": "cardSetToTotem",
      "outputs": [
        {
          "name": "",
          "type": "uint32"
        }
      ],
      "payable": false,
      "stateMutability": "view",
      "type": "function"
    },
    {
      "constant": true,
      "inputs": [],
      "name": "transferFee",
      "outputs": [
        {
          "name": "",
          "type": "uint256"
        }
      ],
      "payable": false,
      "stateMutability": "view",
      "type": "function"
    },
    {
      "constant": true,
      "inputs": [
        {
          "name": "",
          "type": "uint32"
        }
      ],
      "name": "cardPrototypeIdToNumberMinted",
      "outputs": [
        {
          "name": "",
          "type": "uint256"
        }
      ],
      "payable": false,
      "stateMutability": "view",
      "type": "function"
    },
    {
      "constant": true,
      "inputs": [
        {
          "name": "",
          "type": "uint32"
        },
        {
          "name": "",
          "type": "uint256"
        }
      ],
      "name": "cardSetArrays",
      "outputs": [
        {
          "name": "",
          "type": "uint32"
        }
      ],
      "payable": false,
      "stateMutability": "view",
      "type": "function"
    },
    {
      "constant": true,
      "inputs": [
        {
          "name": "",
          "type": "uint256"
        }
      ],
      "name": "auctionIdToPrice",
      "outputs": [
        {
          "name": "",
          "type": "uint256"
        }
      ],
      "payable": false,
      "stateMutability": "view",
      "type": "function"
    },
    {
      "constant": true,
      "inputs": [
        {
          "name": "",
          "type": "uint32"
        }
      ],
      "name": "totemToRarity",
      "outputs": [
        {
          "name": "",
          "type": "uint8"
        }
      ],
      "payable": false,
      "stateMutability": "view",
      "type": "function"
    },
    {
      "constant": true,
      "inputs": [
        {
          "name": "",
          "type": "uint32"
        }
      ],
      "name": "cardPrototytpeIdToCardPrototype",
      "outputs": [
        {
          "name": "cardPrototypeId",
          "type": "uint32"
        },
        {
          "name": "cardSet",
          "type": "uint32"
        },
        {
          "name": "cardRarity",
          "type": "uint8"
        },
        {
          "name": "cardActionPointCost",
          "type": "uint8"
        },
        {
          "name": "cardAttackValue",
          "type": "uint8"
        },
        {
          "name": "cardHealthValue",
          "type": "uint8"
        },
        {
          "name": "cardActionOne",
          "type": "uint8"
        },
        {
          "name": "cardActionTwo",
          "type": "uint8"
        },
        {
          "name": "cardActionThree",
          "type": "uint8"
        },
        {
          "name": "cardActionOneValue",
          "type": "uint8"
        },
        {
          "name": "cardActionTwoValue",
          "type": "uint8"
        },
        {
          "name": "cardActionThreeValue",
          "type": "uint8"
        },
        {
          "name": "cardTitle",
          "type": "bytes32"
        },
        {
          "name": "cardArtist",
          "type": "bytes32"
        }
      ],
      "payable": false,
      "stateMutability": "view",
      "type": "function"
    },
    {
      "constant": true,
      "inputs": [
        {
          "name": "",
          "type": "uint32"
        }
      ],
      "name": "cardSetToRarity",
      "outputs": [
        {
          "name": "",
          "type": "uint8"
        }
      ],
      "payable": false,
      "stateMutability": "view",
      "type": "function"
    },
    {
      "constant": true,
      "inputs": [],
      "name": "delegateAuction",
      "outputs": [
        {
          "name": "",
          "type": "bool"
        }
      ],
      "payable": false,
      "stateMutability": "view",
      "type": "function"
    },
    {
      "constant": true,
      "inputs": [
        {
          "name": "",
          "type": "uint256"
        }
      ],
      "name": "tokenIdToApproved",
      "outputs": [
        {
          "name": "",
          "type": "address"
        }
      ],
      "payable": false,
      "stateMutability": "view",
      "type": "function"
    },
    {
      "inputs": [],
      "payable": false,
      "stateMutability": "nonpayable",
      "type": "constructor"
    },
    {
      "payable": true,
      "stateMutability": "payable",
      "type": "fallback"
    },
    {
      "anonymous": false,
      "inputs": [
        {
          "indexed": true,
          "name": "_from",
          "type": "address"
        },
        {
          "indexed": true,
          "name": "_to",
          "type": "address"
        },
        {
          "indexed": true,
          "name": "_tokenId",
          "type": "uint256"
        }
      ],
      "name": "Transfer",
      "type": "event"
    },
    {
      "anonymous": false,
      "inputs": [
        {
          "indexed": true,
          "name": "_owner",
          "type": "address"
        },
        {
          "indexed": true,
          "name": "_approved",
          "type": "address"
        },
        {
          "indexed": true,
          "name": "_tokenId",
          "type": "uint256"
        }
      ],
      "name": "Approval",
      "type": "event"
    },
    {
      "anonymous": false,
      "inputs": [
        {
          "indexed": true,
          "name": "_creator",
          "type": "address"
        },
        {
          "indexed": true,
          "name": "_cardPrototypeId",
          "type": "uint32"
        }
      ],
      "name": "CreateCardPrototype",
      "type": "event"
    },
    {
      "anonymous": false,
      "inputs": [
        {
          "indexed": true,
          "name": "_address",
          "type": "address"
        },
        {
          "indexed": true,
          "name": "_cardPrototypeId",
          "type": "uint32"
        }
      ],
      "name": "ModifyCardPrototype",
      "type": "event"
    },
    {
      "anonymous": false,
      "inputs": [
        {
          "indexed": true,
          "name": "_creator",
          "type": "address"
        },
        {
          "indexed": true,
          "name": "_actionKey",
          "type": "uint8"
        },
        {
          "indexed": true,
          "name": "_action",
          "type": "bytes32"
        }
      ],
      "name": "AddAction",
      "type": "event"
    },
    {
      "anonymous": false,
      "inputs": [
        {
          "indexed": true,
          "name": "_creator",
          "type": "address"
        },
        {
          "indexed": true,
          "name": "_setId",
          "type": "uint32"
        },
        {
          "indexed": true,
          "name": "_setTitle",
          "type": "bytes32"
        },
        {
          "indexed": false,
          "name": "_setRarity",
          "type": "uint8"
        }
      ],
      "name": "AddSet",
      "type": "event"
    },
    {
      "anonymous": false,
      "inputs": [
        {
          "indexed": true,
          "name": "_creator",
          "type": "address"
        },
        {
          "indexed": true,
          "name": "_cardPrototypeId",
          "type": "uint32"
        },
        {
          "indexed": true,
          "name": "_setId",
          "type": "uint32"
        }
      ],
      "name": "SetTotemToSet",
      "type": "event"
    },
    {
      "anonymous": false,
      "inputs": [
        {
          "indexed": true,
          "name": "_owner",
          "type": "address"
        },
        {
          "indexed": true,
          "name": "_tokenId",
          "type": "uint256"
        },
        {
          "indexed": true,
          "name": "_setId",
          "type": "uint32"
        }
      ],
      "name": "UseTotem",
      "type": "event"
    },
    {
      "anonymous": false,
      "inputs": [
        {
          "indexed": true,
          "name": "_owner",
          "type": "address"
        },
        {
          "indexed": true,
          "name": "_tokenId",
          "type": "uint256"
        },
        {
          "indexed": true,
          "name": "_cardPrototypeId",
          "type": "uint32"
        }
      ],
      "name": "MintCard",
      "type": "event"
    },
    {
      "anonymous": false,
      "inputs": [
        {
          "indexed": true,
          "name": "_owner",
          "type": "address"
        },
        {
          "indexed": true,
          "name": "_tokenId",
          "type": "uint256"
        },
        {
          "indexed": true,
          "name": "_cardPrototypeId",
          "type": "uint32"
        }
      ],
      "name": "MintArtCard",
      "type": "event"
    },
    {
      "anonymous": false,
      "inputs": [
        {
          "indexed": true,
          "name": "_owner",
          "type": "address"
        },
        {
          "indexed": true,
          "name": "_auctionId",
          "type": "uint256"
        },
        {
          "indexed": true,
          "name": "_tokenId",
          "type": "uint256"
        }
      ],
      "name": "CreateAuction",
      "type": "event"
    },
    {
      "anonymous": false,
      "inputs": [
        {
          "indexed": true,
          "name": "_auctionId",
          "type": "uint256"
        }
      ],
      "name": "CloseAuction",
      "type": "event"
    },
    {
      "anonymous": false,
      "inputs": [
        {
          "indexed": true,
          "name": "_buyer",
          "type": "address"
        },
        {
          "indexed": true,
          "name": "_auctionId",
          "type": "uint256"
        },
        {
          "indexed": true,
          "name": "_price",
          "type": "uint256"
        }
      ],
      "name": "BuyAuction",
      "type": "event"
    },
    {
      "anonymous": false,
      "inputs": [
        {
          "indexed": true,
          "name": "_auctionId",
          "type": "uint256"
        },
        {
          "indexed": true,
          "name": "_price",
          "type": "uint256"
        }
      ],
      "name": "SetAuctionPrice",
      "type": "event"
    },
    {
      "constant": true,
      "inputs": [],
      "name": "checkBalance",
      "outputs": [
        {
          "name": "",
          "type": "uint256"
        }
      ],
      "payable": false,
      "stateMutability": "view",
      "type": "function"
    },
    {
      "constant": true,
      "inputs": [
        {
          "name": "_setId",
          "type": "uint32"
        }
      ],
      "name": "getCardSetArrayLength",
      "outputs": [
        {
          "name": "",
          "type": "uint256"
        }
      ],
      "payable": false,
      "stateMutability": "view",
      "type": "function"
    },
    {
      "constant": true,
      "inputs": [
        {
          "name": "_setId",
          "type": "uint32"
        },
        {
          "name": "_index",
          "type": "uint256"
        }
      ],
      "name": "getCardSetArrayCard",
      "outputs": [
        {
          "name": "",
          "type": "uint32"
        }
      ],
      "payable": false,
      "stateMutability": "view",
      "type": "function"
    },
    {
      "constant": true,
      "inputs": [
        {
          "name": "_address",
          "type": "address"
        }
      ],
      "name": "getOwnerArray",
      "outputs": [
        {
          "name": "",
          "type": "uint256[]"
        }
      ],
      "payable": false,
      "stateMutability": "view",
      "type": "function"
    },
    {
      "constant": true,
      "inputs": [
        {
          "name": "_address",
          "type": "address"
        },
        {
          "name": "_setId",
          "type": "uint32"
        }
      ],
      "name": "getOwnerCardSetArray",
      "outputs": [
        {
          "name": "",
          "type": "uint32[]"
        }
      ],
      "payable": false,
      "stateMutability": "view",
      "type": "function"
    },
    {
      "constant": true,
      "inputs": [
        {
          "name": "_address",
          "type": "address"
        },
        {
          "name": "_setId",
          "type": "uint32"
        },
        {
          "name": "_index",
          "type": "uint256"
        }
      ],
      "name": "getOwnerCardSetArrayCard",
      "outputs": [
        {
          "name": "",
          "type": "uint32"
        }
      ],
      "payable": false,
      "stateMutability": "view",
      "type": "function"
    },
    {
      "constant": true,
      "inputs": [
        {
          "name": "_tokenId",
          "type": "uint256"
        },
        {
          "name": "_setId",
          "type": "uint32"
        }
      ],
      "name": "getTotemUsed",
      "outputs": [
        {
          "name": "",
          "type": "bool"
        }
      ],
      "payable": false,
      "stateMutability": "view",
      "type": "function"
    },
    {
      "constant": true,
      "inputs": [
        {
          "name": "_rarity",
          "type": "uint256"
        }
      ],
      "name": "getCardRarityCount",
      "outputs": [
        {
          "name": "",
          "type": "uint256"
        }
      ],
      "payable": false,
      "stateMutability": "view",
      "type": "function"
    },
    {
      "constant": true,
      "inputs": [
        {
          "name": "_rarity",
          "type": "uint256"
        }
      ],
      "name": "getCardRarityArray",
      "outputs": [
        {
          "name": "",
          "type": "uint32[]"
        }
      ],
      "payable": false,
      "stateMutability": "view",
      "type": "function"
    },
    {
      "constant": true,
      "inputs": [
        {
          "name": "_rarity",
          "type": "uint256"
        },
        {
          "name": "_index",
          "type": "uint256"
        }
      ],
      "name": "getCardByRarity",
      "outputs": [
        {
          "name": "",
          "type": "uint32"
        }
      ],
      "payable": false,
      "stateMutability": "view",
      "type": "function"
    },
    {
      "constant": false,
      "inputs": [
        {
          "name": "_auctionId",
          "type": "uint256"
        }
      ],
      "name": "claimSales",
      "outputs": [],
      "payable": true,
      "stateMutability": "payable",
      "type": "function"
    },
    {
      "constant": false,
      "inputs": [
        {
          "name": "_to",
          "type": "address"
        },
        {
          "name": "_value",
          "type": "uint256"
        }
      ],
      "name": "cashOut",
      "outputs": [],
      "payable": true,
      "stateMutability": "payable",
      "type": "function"
    },
    {
      "constant": false,
      "inputs": [
        {
          "name": "_owner",
          "type": "address"
        }
      ],
      "name": "setOwner",
      "outputs": [],
      "payable": false,
      "stateMutability": "nonpayable",
      "type": "function"
    },
    {
      "constant": false,
      "inputs": [
        {
          "name": "_admin",
          "type": "address"
        }
      ],
      "name": "setAdmin",
      "outputs": [],
      "payable": false,
      "stateMutability": "nonpayable",
      "type": "function"
    },
    {
      "constant": false,
      "inputs": [
        {
          "name": "_admin",
          "type": "address"
        }
      ],
      "name": "removeAdmin",
      "outputs": [],
      "payable": false,
      "stateMutability": "nonpayable",
      "type": "function"
    },
    {
      "constant": false,
      "inputs": [
        {
          "name": "_governance",
          "type": "address"
        }
      ],
      "name": "setGovernance",
      "outputs": [],
      "payable": false,
      "stateMutability": "nonpayable",
      "type": "function"
    },
    {
      "constant": false,
      "inputs": [
        {
          "name": "_governance",
          "type": "address"
        }
      ],
      "name": "removeGovernance",
      "outputs": [],
      "payable": false,
      "stateMutability": "nonpayable",
      "type": "function"
    },
    {
      "constant": false,
      "inputs": [
        {
          "name": "_price",
          "type": "uint256"
        }
      ],
      "name": "setCardPackPrice",
      "outputs": [],
      "payable": false,
      "stateMutability": "nonpayable",
      "type": "function"
    },
    {
      "constant": false,
      "inputs": [
        {
          "name": "_cardPrototypeId",
          "type": "uint32"
        },
        {
          "name": "_price",
          "type": "uint256"
        },
        {
          "name": "_amount",
          "type": "uint256"
        }
      ],
      "name": "setCardPriceAndAmount",
      "outputs": [],
      "payable": false,
      "stateMutability": "nonpayable",
      "type": "function"
    },
    {
      "constant": false,
      "inputs": [
        {
          "name": "_amount",
          "type": "uint256"
        }
      ],
      "name": "setCardPackAmount",
      "outputs": [],
      "payable": false,
      "stateMutability": "nonpayable",
      "type": "function"
    },
    {
      "constant": false,
      "inputs": [
        {
          "name": "_allow",
          "type": "bool"
        }
      ],
      "name": "setAllowTotem",
      "outputs": [],
      "payable": false,
      "stateMutability": "nonpayable",
      "type": "function"
    },
    {
      "constant": false,
      "inputs": [
        {
          "name": "_address",
          "type": "address"
        }
      ],
      "name": "setArtAddress",
      "outputs": [],
      "payable": false,
      "stateMutability": "nonpayable",
      "type": "function"
    },
    {
      "constant": false,
      "inputs": [
        {
          "name": "_cardPrototypeId",
          "type": "uint32"
        },
        {
          "name": "_url",
          "type": "bytes32"
        }
      ],
      "name": "setArtUrl",
      "outputs": [],
      "payable": false,
      "stateMutability": "nonpayable",
      "type": "function"
    },
    {
      "constant": false,
      "inputs": [
        {
          "name": "_address",
          "type": "address"
        }
      ],
      "name": "setAuctionAddress",
      "outputs": [],
      "payable": false,
      "stateMutability": "nonpayable",
      "type": "function"
    },
    {
      "constant": false,
      "inputs": [
        {
          "name": "_delegate",
          "type": "bool"
        }
      ],
      "name": "setDelegateAuction",
      "outputs": [],
      "payable": false,
      "stateMutability": "nonpayable",
      "type": "function"
    },
    {
      "constant": false,
      "inputs": [
        {
          "name": "_price",
          "type": "uint256"
        }
      ],
      "name": "setAuctionFee",
      "outputs": [],
      "payable": false,
      "stateMutability": "nonpayable",
      "type": "function"
    },
    {
      "constant": false,
      "inputs": [
        {
          "name": "_address",
          "type": "address"
        }
      ],
      "name": "upgradeContract",
      "outputs": [],
      "payable": false,
      "stateMutability": "nonpayable",
      "type": "function"
    },
    {
      "constant": false,
      "inputs": [
        {
          "name": "_setting",
          "type": "bool"
        }
      ],
      "name": "setFreeTransfer",
      "outputs": [],
      "payable": false,
      "stateMutability": "nonpayable",
      "type": "function"
    },
    {
      "constant": false,
      "inputs": [
        {
          "name": "_fee",
          "type": "uint256"
        }
      ],
      "name": "setTransferFee",
      "outputs": [],
      "payable": false,
      "stateMutability": "nonpayable",
      "type": "function"
    },
    {
      "constant": true,
      "inputs": [],
      "name": "name",
      "outputs": [
        {
          "name": "",
          "type": "string"
        }
      ],
      "payable": false,
      "stateMutability": "pure",
      "type": "function"
    },
    {
      "constant": true,
      "inputs": [],
      "name": "symbol",
      "outputs": [
        {
          "name": "",
          "type": "string"
        }
      ],
      "payable": false,
      "stateMutability": "pure",
      "type": "function"
    },
    {
      "constant": true,
      "inputs": [],
      "name": "totalSupply",
      "outputs": [
        {
          "name": "",
          "type": "uint256"
        }
      ],
      "payable": false,
      "stateMutability": "view",
      "type": "function"
    },
    {
      "constant": true,
      "inputs": [
        {
          "name": "_owner",
          "type": "address"
        }
      ],
      "name": "balanceOf",
      "outputs": [
        {
          "name": "",
          "type": "uint256"
        }
      ],
      "payable": false,
      "stateMutability": "view",
      "type": "function"
    },
    {
      "constant": true,
      "inputs": [
        {
          "name": "_tokenId",
          "type": "uint256"
        }
      ],
      "name": "ownerOf",
      "outputs": [
        {
          "name": "",
          "type": "address"
        }
      ],
      "payable": false,
      "stateMutability": "view",
      "type": "function"
    },
    {
      "constant": true,
      "inputs": [
        {
          "name": "_owner",
          "type": "address"
        },
        {
          "name": "_index",
          "type": "uint256"
        }
      ],
      "name": "tokenOfOwnerByIndex",
      "outputs": [
        {
          "name": "",
          "type": "uint256"
        }
      ],
      "payable": false,
      "stateMutability": "view",
      "type": "function"
    },
    {
      "constant": false,
      "inputs": [
        {
          "name": "_to",
          "type": "address"
        },
        {
          "name": "_tokenId",
          "type": "uint256"
        }
      ],
      "name": "approve",
      "outputs": [],
      "payable": false,
      "stateMutability": "nonpayable",
      "type": "function"
    },
    {
      "constant": false,
      "inputs": [
        {
          "name": "_tokenId",
          "type": "uint256"
        }
      ],
      "name": "takeOwnership",
      "outputs": [],
      "payable": false,
      "stateMutability": "nonpayable",
      "type": "function"
    },
    {
      "constant": false,
      "inputs": [
        {
          "name": "_to",
          "type": "address"
        },
        {
          "name": "_tokenId",
          "type": "uint256"
        }
      ],
      "name": "payTransfer",
      "outputs": [],
      "payable": true,
      "stateMutability": "payable",
      "type": "function"
    },
    {
      "constant": false,
      "inputs": [
        {
          "name": "_to",
          "type": "address"
        },
        {
          "name": "_tokenId",
          "type": "uint256"
        }
      ],
      "name": "transfer",
      "outputs": [],
      "payable": false,
      "stateMutability": "nonpayable",
      "type": "function"
    },
    {
      "constant": false,
      "inputs": [
        {
          "name": "_cardPrototype",
          "type": "uint32"
        }
      ],
      "name": "buyCard",
      "outputs": [],
      "payable": true,
      "stateMutability": "payable",
      "type": "function"
    },
    {
      "constant": false,
      "inputs": [
        {
          "name": "_amount",
          "type": "uint256"
        }
      ],
      "name": "buyCards",
      "outputs": [],
      "payable": true,
      "stateMutability": "payable",
      "type": "function"
    },
    {
      "constant": false,
      "inputs": [
        {
          "name": "_to",
          "type": "address"
        },
        {
          "name": "_amount",
          "type": "uint256"
        },
        {
          "name": "_cardPrototype",
          "type": "uint32"
        }
      ],
      "name": "mintCardOwner",
      "outputs": [],
      "payable": false,
      "stateMutability": "nonpayable",
      "type": "function"
    },
    {
      "constant": false,
      "inputs": [
        {
          "name": "_setId",
          "type": "uint32"
        }
      ],
      "name": "claimTotem",
      "outputs": [],
      "payable": false,
      "stateMutability": "nonpayable",
      "type": "function"
    },
    {
      "constant": false,
      "inputs": [
        {
          "name": "_totemId",
          "type": "uint256"
        },
        {
          "name": "_setId",
          "type": "uint32"
        }
      ],
      "name": "useTotem",
      "outputs": [],
      "payable": false,
      "stateMutability": "nonpayable",
      "type": "function"
    },
    {
      "constant": false,
      "inputs": [
        {
          "name": "_cardSet",
          "type": "uint32"
        },
        {
          "name": "_cardRarity",
          "type": "uint8"
        },
        {
          "name": "_cardActionPointCost",
          "type": "uint8"
        },
        {
          "name": "_cardAttackValue",
          "type": "uint8"
        },
        {
          "name": "_cardHealthValue",
          "type": "uint8"
        },
        {
          "name": "_cardActionOne",
          "type": "uint8"
        },
        {
          "name": "_cardActionTwo",
          "type": "uint8"
        },
        {
          "name": "_cardActionThree",
          "type": "uint8"
        },
        {
          "name": "_cardActionOneValue",
          "type": "uint8"
        },
        {
          "name": "_cardActionTwoValue",
          "type": "uint8"
        },
        {
          "name": "_cardActionThreeValue",
          "type": "uint8"
        },
        {
          "name": "_cardTitle",
          "type": "bytes32"
        },
        {
          "name": "_cardArtist",
          "type": "bytes32"
        }
      ],
      "name": "createCardPrototype",
      "outputs": [],
      "payable": false,
      "stateMutability": "nonpayable",
      "type": "function"
    },
    {
      "constant": false,
      "inputs": [
        {
          "name": "_cardPrototypeId",
          "type": "uint32"
        },
        {
          "name": "_cardActionPointCost",
          "type": "uint8"
        },
        {
          "name": "_cardAttackValue",
          "type": "uint8"
        },
        {
          "name": "_cardHealthValue",
          "type": "uint8"
        },
        {
          "name": "_cardActionOne",
          "type": "uint8"
        },
        {
          "name": "_cardActionTwo",
          "type": "uint8"
        },
        {
          "name": "_cardActionThree",
          "type": "uint8"
        },
        {
          "name": "_cardActionOneValue",
          "type": "uint8"
        },
        {
          "name": "_cardActionTwoValue",
          "type": "uint8"
        },
        {
          "name": "_cardActionThreeValue",
          "type": "uint8"
        }
      ],
      "name": "modifyCardPrototype",
      "outputs": [],
      "payable": false,
      "stateMutability": "nonpayable",
      "type": "function"
    },
    {
      "constant": false,
      "inputs": [
        {
          "name": "_setId",
          "type": "uint32"
        },
        {
          "name": "_setTitle",
          "type": "bytes32"
        },
        {
          "name": "_cardRarity",
          "type": "uint8"
        }
      ],
      "name": "createSet",
      "outputs": [],
      "payable": false,
      "stateMutability": "nonpayable",
      "type": "function"
    },
    {
      "constant": false,
      "inputs": [
        {
          "name": "_totemId",
          "type": "uint32"
        },
        {
          "name": "_setId",
          "type": "uint32"
        }
      ],
      "name": "setTotemToSet",
      "outputs": [],
      "payable": false,
      "stateMutability": "nonpayable",
      "type": "function"
    },
    {
      "constant": false,
      "inputs": [
        {
          "name": "_action",
          "type": "bytes32"
        }
      ],
      "name": "createAction",
      "outputs": [],
      "payable": false,
      "stateMutability": "nonpayable",
      "type": "function"
    },
    {
      "constant": false,
      "inputs": [
        {
          "name": "_tokenId",
          "type": "uint256"
        },
        {
          "name": "_price",
          "type": "uint256"
        }
      ],
      "name": "createAuction",
      "outputs": [],
      "payable": false,
      "stateMutability": "nonpayable",
      "type": "function"
    },
    {
      "constant": false,
      "inputs": [
        {
          "name": "_auctionId",
          "type": "uint256"
        }
      ],
      "name": "closeAuction",
      "outputs": [],
      "payable": false,
      "stateMutability": "nonpayable",
      "type": "function"
    },
    {
      "constant": false,
      "inputs": [
        {
          "name": "_auctionId",
          "type": "uint256"
        }
      ],
      "name": "buyAuction",
      "outputs": [],
      "payable": true,
      "stateMutability": "payable",
      "type": "function"
    }
  ],
  "bytecode": "0x608060405260018080556002805464010000000063ffffffff19909116831764ff00000000191617905560038190556604f94ae6af80006004819055600555660aa87bee538000600655606460075560006008556009805460ff191690911762ffff00191690553480156200007357600080fd5b5060008054600160a060020a03191633600160a060020a03811691909117909155620000a890640100000000620000c2810204565b620000bc3364010000000062000102810204565b62000142565b60005433600160a060020a03908116911614620000de57600080fd5b600160a060020a03166000908152600c60205260409020805460ff19166001179055565b60005433600160a060020a039081169116146200011e57600080fd5b600160a060020a03166000908152600d60205260409020805460ff19166001179055565b61491180620001526000396000f3006080604052600436106104605763ffffffff7c01000000000000000000000000000000000000000000000000000000006000350416630121683f811461047d57806301fe6e241461049857806302548376146104b657806304bf188b1461052057806305bcd4631461059a57806306b47610146105bb57806306fdde03146105dc578063095ea7b314610666578063096a04551461068a5780630a363a92146106b157806313af4035146106cb57806314525b6b146106ec5780631785f53c1461071357806318160ddd146107345780632240544314610749578063233b90a114610760578063236ed8f31461077e57806324e38fca1461079657806327e235e3146107ae5780632abfaf1f146107cf5780632ad71573146107e95780632b0fa9d5146107fe5780632dd4a548146108195780632f745c59146108315780632fc93fea1461085557806339f6afa3146108875780633bb72716146108b85780633c0fb4ce146108d35780633ed9dd49146108e857806346d92380146108fd578063489427541461091b57806348b56f15146109305780634a60f511146109455780635476ea9e1461097957806355ec5cf51461098e5780635cc2ec56146109f35780636109342214610a08578063631f0d6614610a205780636352211e14610a3557806363a846f814610a4d578063644910c814610a6e578063647b606514610a865780636729c2bd14610a9e57806368e34a4a14610acb57806369fe25a014610ae95780636a2d2a9914610b075780636c57915214610b1c5780636dffd0ad14610b3d5780636e9e48ef14610b5e578063704b6c0214610b7657806370a0823114610b975780637471981e14610bb857806375256e6a14610bd95780637610204d14610bfd5780638426e6c114610c1457806386495e2214610c355780638711e3f314610c405780638bd37a2014610c615780638da5cb5b14610c795780638ef276b114610c8e5780638f02bb5b14610cbb578063906e247914610cd3578063932c1cae14610cf457806393943ce114610d0957806393ac363814610d3457806395d89b4114610d555780639ae6ad7b14610d6a5780639e33ca0b14610d825780639ea68dde14610d9a5780639f181b5e14610db85780639f3c3a6114610dcd578063a904125f14610deb578063a9059cbb14610e03578063ab033ea914610e27578063acb2ad6f14610e48578063b1463d7214610e5d578063b2e6ceeb14610e7b578063b4c2252a14610e93578063b714f3cf14610eb7578063b75cc50414610ed8578063bedafff614610ef0578063bf337d5814610f08578063c71daccb14610f20578063c8ea062a14610f35578063cac082b014610f56578063d057570814610f74578063e1a8d77514610f85578063e20adab314610fa9578063e2d31b4414610fff578063e2ff2b7a146110f2578063e4d7b8cb14611110578063e6235a9b14611125578063eb2c022314611130578063eb5653d714611151578063f59e754c14611169578063fb03654214611181578063fd8acc421461119b575b60005433600160a060020a0390811691161461047b57600080fd5b005b34801561048957600080fd5b5061047b6004356024356111a6565b3480156104a457600080fd5b5061047b63ffffffff60043516611540565b3480156104c257600080fd5b506104ce600435611690565b6040805198895260208901979097528787019590955260608701939093526080860191909152600160a060020a031660a085015263ffffffff1660c0840152151560e083015251908190036101000190f35b34801561052c57600080fd5b5061054a600160a060020a036004351663ffffffff6024351661170e565b60408051602080825283518183015283519192839290830191858101910280838360005b8381101561058657818101518382015260200161056e565b505050509050019250505060405180910390f35b3480156105a657600080fd5b5061047b60043563ffffffff602435166117b6565b3480156105c757600080fd5b5061047b600160a060020a0360043516611967565b3480156105e857600080fd5b506105f16119b1565b6040805160208082528351818301528351919283929083019185019080838360005b8381101561062b578181015183820152602001610613565b50505050905090810190601f1680156106585780820380516001836020036101000a031916815260200191505b509250505060405180910390f35b34801561067257600080fd5b5061047b600160a060020a03600435166024356119e9565b34801561069657600080fd5b5061047b63ffffffff6004351660243560ff60443516611ba5565b3480156106bd57600080fd5b5061047b6004351515611c75565b3480156106d757600080fd5b5061047b600160a060020a0360043516611caa565b3480156106f857600080fd5b50610701611cf4565b60408051918252519081900360200190f35b34801561071f57600080fd5b5061047b600160a060020a0360043516611cfa565b34801561074057600080fd5b50610701611d36565b61047b600160a060020a0360043516602435611d40565b34801561076c57600080fd5b5061070163ffffffff60043516611d96565b34801561078a57600080fd5b5061047b600435611db2565b3480156107a257600080fd5b5061047b600435611e33565b3480156107ba57600080fd5b50610701600160a060020a0360043516611f1d565b3480156107db57600080fd5b5061047b6004351515611f2f565b3480156107f557600080fd5b50610701611f72565b34801561080a57600080fd5b5061070160ff60043516611f78565b34801561082557600080fd5b50610701600435611f8a565b34801561083d57600080fd5b50610701600160a060020a0360043516602435611f9c565b34801561086157600080fd5b5061087363ffffffff60043516611ff5565b604080519115158252519081900360200190f35b34801561089357600080fd5b5061089f60043561200a565b6040805163ffffffff9092168252519081900360200190f35b3480156108c457600080fd5b5061089f600435602435612022565b3480156108df57600080fd5b506107016120f0565b3480156108f457600080fd5b506107016120f6565b34801561090957600080fd5b5061070163ffffffff600435166120fc565b34801561092757600080fd5b5061070161210e565b34801561093c57600080fd5b50610873612114565b34801561095157600080fd5b5061095d600435612123565b60408051600160a060020a039092168252519081900360200190f35b34801561098557600080fd5b5061095d61213e565b34801561099a57600080fd5b5061047b63ffffffff6004351660ff60243581169060443581169060643581169060843581169060a43581169060c43581169060e435811690610104358116906101243581169061014435166101643561018435612154565b3480156109ff57600080fd5b5061089f612a29565b348015610a1457600080fd5b5061089f600435612a35565b348015610a2c57600080fd5b5061095d612a4d565b348015610a4157600080fd5b5061095d600435612a5c565b348015610a5957600080fd5b50610873600160a060020a0360043516612aa9565b348015610a7a57600080fd5b50610873600435612abe565b348015610a9257600080fd5b50610701600435612ad3565b348015610aaa57600080fd5b5061047b600160a060020a036004351660243563ffffffff60443516612ae5565b348015610ad757600080fd5b5061070163ffffffff60043516612b87565b348015610af557600080fd5b5061070163ffffffff60043516612b99565b348015610b1357600080fd5b50610873612bab565b348015610b2857600080fd5b5061047b63ffffffff60043516602435612bb4565b348015610b4957600080fd5b5061087360043563ffffffff60243516612bf4565b348015610b6a57600080fd5b5061095d600435612c1c565b348015610b8257600080fd5b5061047b600160a060020a0360043516612c37565b348015610ba357600080fd5b50610701600160a060020a0360043516612c76565b348015610bc457600080fd5b5061087360043563ffffffff60243516612c91565b348015610be557600080fd5b50610701600160a060020a0360043516602435612cb1565b61047b600160a060020a0360043516602435612ce0565b348015610c2057600080fd5b50610873600160a060020a0360043516612d41565b61047b600435612d56565b348015610c4c57600080fd5b5061089f63ffffffff60043516602435612d9d565b348015610c6d57600080fd5b50610701600435612dec565b348015610c8557600080fd5b5061095d612dfe565b348015610c9a57600080fd5b5061089f600160a060020a036004351663ffffffff60243516604435612e0d565b348015610cc757600080fd5b5061047b600435612e71565b348015610cdf57600080fd5b5061047b600160a060020a0360043516612e9d565b348015610d0057600080fd5b5061095d612ed9565b348015610d1557600080fd5b50610d1e612ee8565b6040805160ff9092168252519081900360200190f35b348015610d4057600080fd5b5061047b600160a060020a0360043516612ef9565b348015610d6157600080fd5b506105f1612f4d565b348015610d7657600080fd5b50610701600435612f84565b348015610d8e57600080fd5b5061047b600435612f96565b348015610da657600080fd5b5061070163ffffffff60043516612fb6565b348015610dc457600080fd5b50610701612fc8565b348015610dd957600080fd5b5061089f63ffffffff60043516612fce565b348015610df757600080fd5b5061047b600435612fe6565b348015610e0f57600080fd5b5061047b600160a060020a0360043516602435613006565b348015610e3357600080fd5b5061047b600160a060020a036004351661301d565b348015610e5457600080fd5b5061070161305c565b348015610e6957600080fd5b5061070163ffffffff60043516613062565b348015610e8757600080fd5b5061047b600435613074565b348015610e9f57600080fd5b5061047b63ffffffff600435811690602435166130f4565b348015610ec357600080fd5b5061089f63ffffffff600435166024356131d5565b348015610ee457600080fd5b5061054a60043561321d565b348015610efc57600080fd5b5061070160043561350e565b348015610f1457600080fd5b50610701600435613520565b348015610f2c57600080fd5b5061070161359e565b348015610f4157600080fd5b5061054a600160a060020a03600435166135ac565b348015610f6257600080fd5b50610d1e63ffffffff60043516613616565b61047b63ffffffff6004351661362b565b348015610f9157600080fd5b5061047b63ffffffff600435166024356044356136b5565b348015610fb557600080fd5b5061047b63ffffffff6004351660ff60243581169060443581169060643581169060843581169060a43581169060c43581169060e4358116906101043581169061012435166136f5565b34801561100b57600080fd5b5061101d63ffffffff60043516613a26565b604051808f63ffffffff1663ffffffff1681526020018e63ffffffff1663ffffffff1681526020018d60ff1660ff1681526020018c60ff1660ff1681526020018b60ff1660ff1681526020018a60ff1660ff1681526020018960ff1660ff1681526020018860ff1660ff1681526020018760ff1660ff1681526020018660ff1660ff1681526020018560ff1660ff1681526020018460ff1660ff168152602001836000191660001916815260200182600019166000191681526020019e50505050505050505050505050505060405180910390f35b3480156110fe57600080fd5b50610d1e63ffffffff60043516613b1f565b34801561111c57600080fd5b50610873613b34565b61047b600435613b42565b34801561113c57600080fd5b5061047b600160a060020a0360043516613c6f565b34801561115d57600080fd5b5061095d600435613cb9565b34801561117557600080fd5b5061047b600435613cd4565b34801561118d57600080fd5b5061047b6004351515613cf4565b61047b600435613d2e565b60095460009081908190610100900460ff16156111c257600080fd5b33600160a060020a03166111d586612a5c565b600160a060020a0316146111e857600080fd5b6000851180156111fb575060ff60020a85105b151561120657600080fd5b600084118015611219575060ff60020a84105b151561122457600080fd5b6000858152602460205260409020549250821561127f57600083815260226020526040902060058101549092507801000000000000000000000000000000000000000000000000900460ff1615156001141561127f57600080fd5b6101006040519081016040528060035481526020018681526020018581526020014381526020016000815260200133600160a060020a031681526020016010600088815260200190815260200160002060009054906101000a900463ffffffff1663ffffffff16815260200160011515815250602260006003548152602001908152602001600020600082015181600001556020820151816001015560408201518160020155606082015181600301556080820151816004015560a08201518160050160006101000a815481600160a060020a030219169083600160a060020a0316021790555060c08201518160050160146101000a81548163ffffffff021916908363ffffffff16021790555060e08201518160050160186101000a81548160ff021916908315150217905550905050846023600060035481526020019081526020016000208190555060035460246000878152602001908152602001600020819055503360256000600354815260200190815260200160002060006101000a815481600160a060020a030219169083600160a060020a0316021790555083602660006003548152602001908152602001600020819055506010600086815260200190815260200160002060009054906101000a900463ffffffff1660276000600354815260200190815260200160002060006101000a81548163ffffffff021916908363ffffffff160217905550600160286000600354815260200190815260200160002060006101000a81548160ff0219169083151502179055506003549050600360008154809291906001019190505550848133600160a060020a03167f710f5a3dfb15edf4cbfee47f1d6c1bbaa49aed49fcd869eeb9c2b7208e0e16e560405160405180910390a4604051849082907f5d0baef703b4a307e146526474f9f851b7987078fba882dea253a2a4339c2bd290600090a35050505050565b600080808063ffffffff8516151561155757600080fd5b63ffffffff851660009081526017602052604090205460ff16151561157b57600080fd5b63ffffffff8516600090815260186020526040902054151561159c57600080fd5b63ffffffff8086166000908152601b60205260409020541693508315156115c257600080fd5b600160a060020a0333166000908152601a6020908152604080832063ffffffff89168452825280832060189092529091205481549194501461160357600080fd5b5050600160a060020a0333166000908152601a602090815260408083208380529091528120905b815481101561167f578363ffffffff16828281548110151561164857fe5b6000918252602090912060088204015460079091166004026101000a900463ffffffff16141561167757600080fd5b60010161162a565b6116893385613eaf565b5050505050565b6022602052600090815260409020805460018201546002830154600384015460048501546005909501549394929391929091600160a060020a0381169074010000000000000000000000000000000000000000810463ffffffff16907801000000000000000000000000000000000000000000000000900460ff1688565b600160a060020a0382166000908152601a6020908152604080832063ffffffff851684528252918290208054835181840281018401909452808452606093928301828280156117a857602002820191906000526020600020906000905b82829054906101000a900463ffffffff1663ffffffff168152602001906004019060208260030104928301926001038202915080841161176b5790505b505050505090505b92915050565b60095460009060ff1615156117ca57600080fd5b6000838152601e602052604090205433600160a060020a039081169116146117f157600080fd5b63ffffffff82161580159061181b575063ffffffff821660009081526017602052604090205460ff165b151561182657600080fd5b6000838152601d6020908152604080832063ffffffff8616845290915290205460ff161561185357600080fd5b600083118015611864575060015483105b151561186f57600080fd5b5060008281526010602090815260408083205463ffffffff1680845260119092529091205468010000000000000000900460ff16156118ad57600080fd5b63ffffffff808316600090815260196020908152604080832054938516835260119091529020546901000000000000000000900460ff9081169116146118f257600080fd5b611904336118ff84614113565b613eaf565b6000838152601d6020908152604080832063ffffffff86168085529252808320805460ff191660011790555190918591600160a060020a033316917feeef74da877fe4d4ef759f6453b1955b5e7be13d957a75c8e2e425db450aedaa91a4505050565b60005433600160a060020a0390811691161461198257600080fd5b600a805473ffffffffffffffffffffffffffffffffffffffff1916600160a060020a0392909216919091179055565b60408051808201909152600b81527f4d65726b6c652042726f7300000000000000000000000000000000000000000060208201525b90565b33600160a060020a03166119fc82612a5c565b600160a060020a031614611a0f57600080fd5b6001548110611a1d57600080fd5b81600160a060020a031633600160a060020a031614151515611a3e57600080fd5b600160a060020a038216158015611a6b57506000818152601f6020526040902054600160a060020a031615155b15611ad3576000818152601f6020526040808220805473ffffffffffffffffffffffffffffffffffffffff191690555182919033600160a060020a0316907f8c5be1e5ebec7d5bd14f71427d1e84f3dd0314c0f7b2291e5b200ac8c7c3b925908390a4611ba1565b6000818152601f6020526040902054600160a060020a0383811691161415611b3b578082600160a060020a031633600160a060020a03167f8c5be1e5ebec7d5bd14f71427d1e84f3dd0314c0f7b2291e5b200ac8c7c3b92560405160405180910390a4611ba1565b6000818152601f6020526040808220805473ffffffffffffffffffffffffffffffffffffffff1916600160a060020a038681169182179092559151849333909216917f8c5be1e5ebec7d5bd14f71427d1e84f3dd0314c0f7b2291e5b200ac8c7c3b92591a45b5050565b600160a060020a0333166000908152600d602052604090205460ff161515611bcc57600080fd5b63ffffffff831660009081526017602052604090205460ff1615611bef57600080fd5b63ffffffff83166000818152601760209081526040808320805460ff19908116600117909155601683528184208790556019835292819020805460ff8716941684179055805192835251859392600160a060020a033316927fbd6d787b88dbeb7ef855063b8b68e2f08a30f201d7cb26fc73e535019c29f75992918290030190a4505050565b60005433600160a060020a03908116911614611c9057600080fd5b600980549115156101000261ff0019909216919091179055565b60005433600160a060020a03908116911614611cc557600080fd5b6000805473ffffffffffffffffffffffffffffffffffffffff1916600160a060020a0392909216919091179055565b60045481565b60005433600160a060020a03908116911614611d1557600080fd5b600160a060020a03166000908152600c60205260409020805460ff19169055565b6001546000190190565b60005433600160a060020a03908116911614611d5b57600080fd5b604051600160a060020a0383169082156108fc029083906000818181858888f19350505050158015611d91573d6000803e3d6000fd5b505050565b63ffffffff81166000908152601860205260409020545b919050565b600954610100900460ff1615611dc757600080fd5b600081118015611dd8575060035481105b1515611de357600080fd5b60008181526028602052604090205460ff161515611e0057600080fd5b60008181526025602052604090205433600160a060020a03908116911614611e2757600080fd5b611e30816141c9565b50565b60008054819033600160a060020a03908116911614611e5157600080fd5b600091505b60025460ff64010000000090910481169083161015611e995760ff8216600090815260156020526040902054831415611e8e57600080fd5b600190910190611e56565b506002805460ff64010000000091829004811660009081526015602052604080822087905584546001858204851690810190941690940264ff0000000019909416939093179093559051909184918391600160a060020a033316917f295c356ca01d4d7bf1f5ece848023f25df3e9c6688d5850d23939354c484eb729190a4505050565b600f6020526000908152604090205481565b600160a060020a0333166000908152600d602052604090205460ff161515611f5657600080fd5b60098054911515620100000262ff000019909216919091179055565b60035481565b60156020526000908152604090205481565b60246020526000908152604090205481565b600160a060020a03821660009081526020805260408120548210611fbf57600080fd5b600160a060020a03831660009081526020805260409020805483908110611fe257fe5b9060005260206000200154905092915050565b60176020526000908152604090205460ff1681565b60106020526000908152604090205463ffffffff1681565b600082151561206657602e80548390811061203957fe5b90600052602060002090600891828204019190066004029054906101000a900463ffffffff1690506117b0565b826001141561207d57602a80548390811061203957fe5b826002141561209457602b80548390811061203957fe5b82600314156120ab57602c80548390811061203957fe5b82600414156120c257602d80548390811061203957fe5b82606414156120d957602f80548390811061203957fe5b8260c814156117b057603080548390811061203957fe5b60075481565b60055481565b60146020526000908152604090205481565b60085481565b60095462010000900460ff1681565b602560205260009081526040902054600160a060020a031681565b60095463010000009004600160a060020a031681565b600160a060020a0333166000908152600d602052604081205460ff16151561217b57600080fd5b60ff8d16158061218e57508c60ff166001145b8061219c57508c60ff166002145b806121aa57508c60ff166003145b806121b857508c60ff166004145b806121c657508c60ff166064145b806121d457508c60ff1660c8145b15156121df57600080fd5b63ffffffff8e1615156121fa5760ff8d16156121fa57600080fd5b8d63ffffffff1661270f141561221a57606460ff8e161461221a57600080fd5b8d63ffffffff16612328141561223a5760c860ff8e161461223a57600080fd5b63ffffffff8e1660009081526017602052604090205460ff16151561225e57600080fd5b63ffffffff8e1660009081526019602052604090205460ff8e811691161461228557600080fd5b60025460ff6401000000009091048116908a16106122a257600080fd5b60025460ff6401000000009091048116908916106122bf57600080fd5b60025460ff6401000000009091048116908816106122dc57600080fd5b60ff8d1615156123d35763ffffffff8e16156122f757600080fd5b8b60ff166001148061230c57508b60ff166002145b8061231a57508b60ff166003145b151561232557600080fd5b8b601c6000600260009054906101000a900463ffffffff1663ffffffff1663ffffffff16815260200190815260200160002060006101000a81548160ff021916908360ff160217905550602e600260009054906101000a900463ffffffff16908060018154018082558091505090600182039060005260206000209060089182820401919006600402909192909190916101000a81548163ffffffff021916908363ffffffff160217905550505b8c60ff166001141561243d57600254602a80546001810182556000919091527fbeced09521047d05b8960b7e7bcc1d1292cf3e4b2a6b63f48335cbde5f7545d26008820401805463ffffffff60079093166004026101000a83810219909116929093169092021790555b8c60ff16600214156124a757600254602b80546001810182556000919091527f11c44e4875b74d31ff9fd779bf2566af7bd15b87fc985d01f5094b89e3669e4f6008820401805463ffffffff60079093166004026101000a83810219909116929093169092021790555b8c60ff166003141561251157600254602c80546001810182556000919091527f7416c943b4a09859521022fd2e90eac0dd9026dad28fa317782a135f28a860916008820401805463ffffffff60079093166004026101000a83810219909116929093169092021790555b8c60ff166004141561257b57600254602d80546001810182556000919091527f4a2cc91ee622da3bc833a54c37ffcb6f3ec23b7793efc5eaf5e71b7b406c5c066008820401805463ffffffff60079093166004026101000a83810219909116929093169092021790555b8c60ff16606414156125f95761270f63ffffffff8f161461259b57600080fd5b600254602f80546001810182556000919091527fa813484aef6fb598f9f753daf162068ff39ccea4075cb95e1a30f86995b5b7ee6008820401805463ffffffff60079093166004026101000a83810219909116929093169092021790555b8c60ff1660c814156126775761232863ffffffff8f161461261957600080fd5b600254603080546001810182556000919091527f6ff97a59c90d62cc7236ba3a37cd85351bf564556780cf8c1157a220f31f0cbb6008820401805463ffffffff60079093166004026101000a83810219909116929093169092021790555b601860008f63ffffffff1663ffffffff168152602001908152602001600020600260009054906101000a900463ffffffff16908060018154018082558091505090600182039060005260206000209060089182820401919006600402909192909190916101000a81548163ffffffff021916908363ffffffff160217905550506101c060405190810160405280600260009054906101000a900463ffffffff1663ffffffff1681526020018f63ffffffff1681526020018e60ff1681526020018d60ff1681526020018c60ff1681526020018b60ff1681526020018a60ff1681526020018960ff1681526020018860ff1681526020018760ff1681526020018660ff1681526020018560ff16815260200184600019168152602001836000191681525060116000600260009054906101000a900463ffffffff1663ffffffff1663ffffffff16815260200190815260200160002060008201518160000160006101000a81548163ffffffff021916908363ffffffff16021790555060208201518160000160046101000a81548163ffffffff021916908363ffffffff16021790555060408201518160000160086101000a81548160ff021916908360ff16021790555060608201518160000160096101000a81548160ff021916908360ff160217905550608082015181600001600a6101000a81548160ff021916908360ff16021790555060a082015181600001600b6101000a81548160ff021916908360ff16021790555060c082015181600001600c6101000a81548160ff021916908360ff16021790555060e082015181600001600d6101000a81548160ff021916908360ff16021790555061010082015181600001600e6101000a81548160ff021916908360ff16021790555061012082015181600001600f6101000a81548160ff021916908360ff1602179055506101408201518160000160106101000a81548160ff021916908360ff1602179055506101608201518160000160116101000a81548160ff021916908360ff16021790555061018082015181600101906000191690556101a08201518160020190600019169055905050600260009054906101000a900463ffffffff1690506002600081819054906101000a900463ffffffff168092919060010191906101000a81548163ffffffff021916908363ffffffff160217905550508063ffffffff1633600160a060020a03167f021b8501df7e94aed173a0bbbb1996fb75e2faa0271391b2ba7e3a0629abe0ba60405160405180910390a35050505050505050505050505050565b60025463ffffffff1681565b60276020526000908152604090205463ffffffff1681565b600b54600160a060020a031681565b6000818152601e6020526040812054600160a060020a03161515612a7f57600080fd5b6001548210612a8d57600080fd5b506000908152601e6020526040902054600160a060020a031690565b600c6020526000908152604090205460ff1681565b60286020526000908152604090205460ff1681565b60216020526000908152604090205481565b6000805433600160a060020a03908116911614612b0157600080fd5b63ffffffff821660009081526011602052604090205468010000000000000000900460ff1660641480612b58575063ffffffff821660009081526011602052604090205468010000000000000000900460ff1660c8145b1515612b6357600080fd5b5060005b82811015612b8157612b798483613eaf565b600101612b67565b50505050565b600e6020526000908152604090205481565b60136020526000908152604090205481565b60095460ff1681565b600160a060020a0333166000908152600d602052604090205460ff161515612bdb57600080fd5b63ffffffff9091166000908152600e6020526040902055565b6000918252601d6020908152604080842063ffffffff93909316845291905290205460ff1690565b601e60205260009081526040902054600160a060020a031681565b60005433600160a060020a03908116911614612c5257600080fd5b600160a060020a03166000908152600c60205260409020805460ff19166001179055565b600160a060020a03166000908152600f602052604090205490565b601d60209081526000928352604080842090915290825290205460ff1681565b6020805281600052604060002081815481101515612ccb57fe5b90600052602060002001600091509150505481565b600654341015612cef57600080fd5b30600160a060020a031682600160a060020a031614151515612d1057600080fd5b33600160a060020a0316612d2382612a5c565b600160a060020a031614612d3657600080fd5b611ba1338383614236565b600d6020526000908152604090205460ff1681565b600754600090821115612d6857600080fd5b600554349083021115612d7a57600080fd5b5060005b81811015611ba157612d95336118ff8385016146bd565b600101612d7e565b63ffffffff82166000908152601860205260408120805483908110612dbe57fe5b90600052602060002090600891828204019190066004029054906101000a900463ffffffff16905092915050565b60296020526000908152604090205481565b600054600160a060020a031681565b600160a060020a0383166000908152601a6020908152604080832063ffffffff861684529091528120805483908110612e4257fe5b90600052602060002090600891828204019190066004029054906101000a900463ffffffff1690509392505050565b600160a060020a0333166000908152600d602052604090205460ff161515612e9857600080fd5b600655565b60005433600160a060020a03908116911614612eb857600080fd5b600160a060020a03166000908152600d60205260409020805460ff19169055565b600a54600160a060020a031681565b600254640100000000900460ff1681565b60005433600160a060020a03908116911614612f1457600080fd5b60098054600160a060020a0390921663010000000276ffffffffffffffffffffffffffffffffffffffff00000019909216919091179055565b60408051808201909152600881527f4d524b4c42524f53000000000000000000000000000000000000000000000000602082015290565b60236020526000908152604090205481565b60005433600160a060020a03908116911614612fb157600080fd5b600755565b60166020526000908152604090205481565b60015481565b601b6020526000908152604090205463ffffffff1681565b60005433600160a060020a0390811691161461300157600080fd5b600555565b60095462010000900460ff161515612cef57600080fd5b60005433600160a060020a0390811691161461303857600080fd5b600160a060020a03166000908152600d60205260409020805460ff19166001179055565b60065481565b60126020526000908152604090205481565b6000818152601f602052604090205433600160a060020a0390811691161461309b57600080fd5b60015481106130a957600080fd5b6000818152601e602052604090205433600160a060020a03908116911614156130d157600080fd5b6000818152601e6020526040902054611e3090600160a060020a03163383614236565b600160a060020a0333166000908152600d602052604090205460ff16151561311b57600080fd5b63ffffffff811660009081526017602052604090205460ff16151561313f57600080fd5b63ffffffff8082166000908152601960209081526040808320549386168352601c90915290205460ff90811691161461317757600080fd5b63ffffffff8181166000818152601b6020526040808220805463ffffffff191694871694851790555191929133600160a060020a0316917fd0db4ec78a193e8372f6f273f9db3aced9931720000d42385984986565fd367591a45050565b6018602052816000526040600020818154811015156131f057fe5b9060005260206000209060089182820401919006600402915091509054906101000a900463ffffffff1681565b60608115156132aa57602e80548060200260200160405190810160405280929190818152602001828054801561329e57602002820191906000526020600020906000905b82829054906101000a900463ffffffff1663ffffffff16815260200190600401906020826003010492830192600103820291508084116132615790505b50505050509050611dad565b816001141561331057602a80548060200260200160405190810160405280929190818152602001828054801561329e576000918252602091829020805463ffffffff16845290820283019290916004910180841161326157905050505050509050611dad565b816002141561337657602b80548060200260200160405190810160405280929190818152602001828054801561329e576000918252602091829020805463ffffffff16845290820283019290916004910180841161326157905050505050509050611dad565b81600314156133dc57602c80548060200260200160405190810160405280929190818152602001828054801561329e576000918252602091829020805463ffffffff16845290820283019290916004910180841161326157905050505050509050611dad565b816004141561344257602d80548060200260200160405190810160405280929190818152602001828054801561329e576000918252602091829020805463ffffffff16845290820283019290916004910180841161326157905050505050509050611dad565b81606414156134a857602f80548060200260200160405190810160405280929190818152602001828054801561329e576000918252602091829020805463ffffffff16845290820283019290916004910180841161326157905050505050509050611dad565b8160c81415611dad57603080548060200260200160405190810160405280929190818152602001828054801561329e576000918252602091829020805463ffffffff16845290820283019290916004910180841161326157905050505050509050611dad565b60266020526000908152604090205481565b60008115156135325750602e54611dad565b81600114156135445750602a54611dad565b81600214156135565750602b54611dad565b81600314156135685750602c54611dad565b816004141561357a5750602d54611dad565b816064141561358c5750602f54611dad565b8160c81415611dad5750603054611dad565b600160a060020a0330163190565b600160a060020a0381166000908152602080805260409182902080548351818402810184019094528084526060939283018282801561360a57602002820191906000526020600020905b8154815260200190600101908083116135f6575b50505050509050919050565b601c6020526000908152604090205460ff1681565b63ffffffff811660009081526013602052604090205434101561364d57600080fd5b63ffffffff8116600090815260136020526040902054151561366e57600080fd5b63ffffffff81166000908152601460205260408120541161368e57600080fd5b63ffffffff811660009081526014602052604090208054600019019055611e303382613eaf565b60005433600160a060020a039081169116146136d057600080fd5b63ffffffff909216600090815260136020908152604080832093909355601490522055565b600160a060020a0333166000908152600d602052604090205460ff16151561371c57600080fd5b60008a63ffffffff1611801561373d575060025463ffffffff908116908b16105b151561374857600080fd5b63ffffffff808b16600090815260116020526040902054640100000000900416151561377357600080fd5b60025460ff64010000000090910481169087161061379057600080fd5b60025460ff6401000000009091048116908616106137ad57600080fd5b60025460ff6401000000009091048116908516106137ca57600080fd5b88601160008c63ffffffff1663ffffffff16815260200190815260200160002060000160096101000a81548160ff021916908360ff16021790555087601160008c63ffffffff1663ffffffff168152602001908152602001600020600001600a6101000a81548160ff021916908360ff16021790555086601160008c63ffffffff1663ffffffff168152602001908152602001600020600001600b6101000a81548160ff021916908360ff16021790555085601160008c63ffffffff1663ffffffff168152602001908152602001600020600001600c6101000a81548160ff021916908360ff16021790555084601160008c63ffffffff1663ffffffff168152602001908152602001600020600001600d6101000a81548160ff021916908360ff16021790555083601160008c63ffffffff1663ffffffff168152602001908152602001600020600001600e6101000a81548160ff021916908360ff16021790555082601160008c63ffffffff1663ffffffff168152602001908152602001600020600001600f6101000a81548160ff021916908360ff16021790555081601160008c63ffffffff1663ffffffff16815260200190815260200160002060000160106101000a81548160ff021916908360ff16021790555080601160008c63ffffffff1663ffffffff16815260200190815260200160002060000160116101000a81548160ff021916908360ff1602179055508963ffffffff1633600160a060020a03167f948d75549c5a8eb4c426e2aea0796e7315dc5f37c8d517db68acfba84df4a63460405160405180910390a350505050505050505050565b60116020526000908152604090208054600182015460029092015463ffffffff8083169364010000000084049091169260ff680100000000000000008204811693690100000000000000000083048216936a010000000000000000000084048316936b01000000000000000000000081048416936c0100000000000000000000000082048116936d010000000000000000000000000083048216936e01000000000000000000000000000084048316936f0100000000000000000000000000000081048416937001000000000000000000000000000000008204811693710100000000000000000000000000000000009092041691908e565b60196020526000908152604090205460ff1681565b600954610100900460ff1681565b6000818152602260209081526040808320602590925282205490919033600160a060020a03908116911614613b7657600080fd5b60008381526028602052604090205460ff1615613b9257600080fd5b6004820154600010613ba357600080fd5b60008381526029602052604081205411613bbc57600080fd5b438260030154600601101515613bd157600080fd5b60048201546008541015613be457600080fd5b6004820154600160a060020a033016311015613bff57600080fd5b5060048082018054600880549190910390555460008481526022602090815260408083204360038201559094018290556029905282812081905591519091600160a060020a0333169183156108fc0291849190818181858888f19350505050158015612b81573d6000803e3d6000fd5b60005433600160a060020a03908116911614613c8a57600080fd5b600b805473ffffffffffffffffffffffffffffffffffffffff1916600160a060020a0392909216919091179055565b601f60205260009081526040902054600160a060020a031681565b60005433600160a060020a03908116911614613cef57600080fd5b600455565b600160a060020a0333166000908152600d602052604090205460ff161515613d1b57600080fd5b6009805460ff1916911515919091179055565b600954610100900460ff1615613d4357600080fd5b600081118015613d54575060035481105b1515613d5f57600080fd5b60008181526028602052604090205460ff161515613d7c57600080fd5b600034118015613d8f575060ff60020a34105b1515613d9a57600080fd5b600454600082815260266020526040902054013414613db857600080fd5b600081815260266020526040902054341015613dd357600080fd5b60008181526025602052604090205433600160a060020a0390811691161415613dfb57600080fd5b613e04816141c9565b600081815260256020908152604080832054602390925290912054613e3491600160a060020a0316903390614236565b6000818152602660208181526040808420805460228452828620600481018290556029855283872091909155436003909101559290915281546008805490910190559054905190918391600160a060020a033316917f5b2b5a6a64cb46131f3532583ad606dda77e314b0c2bc85013159d8cd6d345fc91a450565b63ffffffff808216600090815260116020908152604080832054600160a060020a0387168452601a835281842064010000000090910490941680845293909152812080549091908190819015613f6057600091505b8354821015613f60578563ffffffff168483815481101515613f2257fe5b6000918252602090912060088204015460079091166004026101000a900463ffffffff161415613f555760019250613f60565b600190910190613f04565b821515613fc957600160a060020a0387166000908152601a6020908152604080832063ffffffff808a1685529083529083208054600181018255908452919092206008820401805489841660046007909416939093026101000a92830292909302199092161790555b50600180546000908152601e60209081526040808320805473ffffffffffffffffffffffffffffffffffffffff1916600160a060020a038c16908117909155808452828052818420855481548088018355828752858720015554855485526021845282852060001990910190558454845260108352818420805463ffffffff191663ffffffff8c8116918217909255918552600f84528285208054870190558554808701875591855260129093529220805490930190925590851661232814156140cc578563ffffffff168188600160a060020a03167f9240fb36c4c6d9970439db91774159d1a3bc840c4bb6cf15d9e1f7a71561418360405160405180910390a45b8563ffffffff168188600160a060020a03167f287c54b2b3cf1602b80628db24c92c01e0992a0a146d124bd34ec016580366b160405160405180910390a450505050505050565b63ffffffff8116600081815260186020908152604080832080548251434081527c01000000000000000000000000000000000000000000000000000000009096028685015282519586900360240186208652429386019390935281519485900390910190932091929167ffffffffffffffff1681151561418f57fe5b0681548110151561419c57fe5b90600052602060002090600891828204019190066004029054906101000a900463ffffffff169050919050565b6000818152602860209081526040808320805460ff191690556022909152808220600501805478ff000000000000000000000000000000000000000000000000191690555182917f35d12aee8d82758bbbe22033c0e4636151fb38714b5b680e94ffb30ef9e6222b91a250565b6000806000806000806000808a600160a060020a03166142558a612a5c565b600160a060020a03161461426857600080fd5b600160a060020a038a16151561427d57600080fd5b89601e60008b815260200190815260200160002060006101000a815481600160a060020a030219169083600160a060020a03160217905550601f60008a815260200190815260200160002060006101000a815490600160a060020a030219169055602160008a8152602001908152602001600020549750602060008c600160a060020a0316600160a060020a03168152602001908152602001600020805490509650602060008c600160a060020a0316600160a060020a031681526020019081526020016000206001880381548110151561435457fe5b6000918252602080832090910154600160a060020a038e1683529080526040909120805491975087918a90811061438757fe5b60009182526020808320909101929092558781526021825260408082208b9055600160a060020a038e16825291805220805460001989019081106143c757fe5b60009182526020808320909101829055600160a060020a038d1682528052604090208054906143fa9060001983016148a8565b50600f60008c600160a060020a0316600160a060020a031681526020019081526020016000206000815480929190600190039190505550602060008b600160a060020a0316600160a060020a031681526020019081526020016000208990806001815401808255809150509060018203906000526020600020016000909192909190915055506001602060008c600160a060020a0316600160a060020a031681526020019081526020016000208054905003602160008b815260200190815260200160002081905550600f60008b600160a060020a0316600160a060020a0316815260200190815260200160002060008154809291906001019190505550601060008a815260200190815260200160002060009054906101000a900463ffffffff169450601160008663ffffffff1663ffffffff16815260200190815260200160002060000160049054906101000a900463ffffffff169350601a60008b600160a060020a0316600160a060020a0316815260200190815260200160002060008563ffffffff1663ffffffff16815260200190815260200160002092506000915082805490506000141515614606575060005b8254811015614606578463ffffffff1683828154811015156145cb57fe5b6000918252602090912060088204015460079091166004026101000a900463ffffffff1614156145fe5760019150614606565b6001016145ad565b81151561466f57600160a060020a038a166000908152601a6020908152604080832063ffffffff80891685529083529083208054600181018255908452919092206008820401805488841660046007909416939093026101000a92830292909302199092161790555b888a600160a060020a03168c600160a060020a03167fddf252ad1be2c89b69c2b068fc378daa952ba7f163c4a11628f55a4df523b3ef60405160405180910390a45050505050505050505050565b6040805143408152602080820184905282519182900383018220825242908201528151908190039091019020600090606467ffffffffffffffff918216069081166063141561478357602d8054604080514340815260208082018890528251918290038301822082524290820152815190819003909101902067ffffffffffffffff1681151561474957fe5b0681548110151561475657fe5b90600052602060002090600891828204019190066004029054906101000a900463ffffffff1691506148a2565b60558167ffffffffffffffff16101580156147a9575060628167ffffffffffffffff1611155b156147f157602c8054604080514340815260208082018890528251918290038301822082524290820152815190819003909101902067ffffffffffffffff1681151561474957fe5b60328167ffffffffffffffff1610158015614817575060548167ffffffffffffffff1611155b1561485f57602b8054604080514340815260208082018890528251918290038301822082524290820152815190819003909101902067ffffffffffffffff1681151561474957fe5b602a8054604080514340815260208082018890528251918290038301822082524290820152815190819003909101902067ffffffffffffffff1681151561474957fe5b50919050565b815481835581811115611d9157600083815260209020611d919181019083016119e691905b808211156148e157600081556001016148cd565b50905600a165627a7a7230582003bf93aca77109278b194ebc7061c4b5b6b8d9d163a39ed2a8fed0113d2d45d00029",
  "source": "pragma solidity ^0.4.23;\ncontract MerkleBros {\n    /* ----------------------- GLOBAL VARIABLES -----------------------*/\n    address public owner;                       //Contract creator\n    uint256 public tokenCount = 1;              //Incremented by one every time a new card (token) is minted\n    uint32 public cardPrototypeCount = 1;       //Incremented by one every time a new card prototype is released\n    uint8 public cardActionsCount = 1;          //Incremented by one every time a new card action is added to cardActions mapping\n    uint256 public auctionCount = 1;            //Incremented by one every time a new auction is created\n    uint256 public auctionFee = 1400 szabo;     //Auction house fee when purchasing a card from the auction house. Owner can set\n    uint256 public cardPackPrice = 1400 szabo;  //Individual card price when buying packs of cards. Owner can set\n    uint256 public transferFee = 3000 szabo;    //Transfer fee (used to discourage spawning free totems endlessly)\n    uint256 public cardPackAmount = 100;        //Max number of cards that can be purchased in a pack. Owner can set to make sure gas use doesn't get crazy in buyCards()\n    uint256 public contractBalanceOwed = 0 ether; //Total balance owed to auction sales\n    bool public allowTotem = true;              //Flag allowing the use of totems (turn off when adding cards to an incomplete set)\n    bool public delegateAuction = false;        //Flag for allowing another contract to handle auctions if auction logic in this contract is faulty\n    bool public freeTransferAllowed = false;    //Flag for allowing free transfers (transferring may be abused to spawn totems)\n    address public auctionAddress;              //Address that will be used for auctions if needed\n    address public artAddress;                  //Address that will be associated with Merkle Bros prints trackable via the blockchain\n    address public upgradeAddress;              //Upgrade address if contract ever needs to be upgraded\n\n    /* ----------------------- Events -----------------------*/\n    event Transfer(address indexed _from, address indexed _to, uint256 indexed _tokenId);\n    event Approval(address indexed _owner, address indexed _approved, uint256 indexed _tokenId);\n    event CreateCardPrototype(address indexed _creator, uint32 indexed _cardPrototypeId);\n    event ModifyCardPrototype(address indexed _address, uint32 indexed _cardPrototypeId);\n    event AddAction(address indexed _creator, uint8 indexed _actionKey, bytes32 indexed _action);\n    event AddSet(address indexed _creator, uint32 indexed _setId, bytes32 indexed _setTitle, uint8 _setRarity);\n    event SetTotemToSet(address indexed _creator, uint32 indexed _cardPrototypeId, uint32 indexed _setId);\n    event UseTotem(address indexed _owner, uint256 indexed _tokenId, uint32 indexed _setId);\n    event MintCard(address indexed _owner, uint256 indexed _tokenId, uint32 indexed _cardPrototypeId);\n    event MintArtCard(address indexed _owner, uint256 indexed _tokenId, uint32 indexed _cardPrototypeId);\n    event CreateAuction(address indexed _owner, uint256 indexed _auctionId, uint256 indexed _tokenId);\n    event CloseAuction(uint256 indexed _auctionId);\n    event BuyAuction(address indexed _buyer, uint256 indexed _auctionId, uint256 indexed _price);\n    event SetAuctionPrice(uint256 indexed _auctionId, uint256 indexed _price);\n    \n    /* ----------------------- Constructor -----------------------*/\n    constructor() public {\n        \n        owner = msg.sender;\n        setAdmin(msg.sender);\n        setGovernance(msg.sender);\n    }\n    \n    /* ----------------------- Utility Functions -----------------------*/\n    //checkBalance - Checks balance of contract\n    //getRandomCard - Returns a random card. Used in buying packs to make random cards.\n    //getRandomCardFromSet - Returns a random card from a set. Used in generating cards using totems.\n    //getCardSetArrayLength - Returns number of cards in a given set\n    //getCardSetArrayCard - Returns a card in a set array given an index\n    //getOwnerArray - Returns an array of tokens owned by an address\n    //getOwnerCardSetArray - Returns an array of card prototypes in a given set owned by a given owner\n    //getOwnerCardSetArrayCard - Returns a card from a given set that is owned by a given owner by index\n    //getTotemUsed - Get a boolean value for whether or not a totem has been used with a given set.\n    //getCardRarityCount - Returns the number of card prototypes of a given rarity\n    //getCardRarityArray - Returns an array of all cardPrototypeIds of a given rarity\n    //getCardByRarity - Returns a card of a given rarity by index\n    //claimSales - Allows an auction owner to claim balanceOwed from a successful auction\n    \n    function checkBalance() public constant returns(uint256) {\n        return address(this).balance;\n    }\n    \n    function getRandomCard(uint256 _amount) internal returns (uint32) {\n        //Card rarities: Common - 50%, Rare - 35%, Epic - 14%, Legendary - 1%\n        //Probably ok to use sha3 for randomness. Cards would need to be worth a lot to throw away a block reward.\n        //See https://ethereum.stackexchange.com/questions/419/when-can-blockhash-be-safely-used-for-a-random-number-when-would-it-be-unsafe\n        \n        uint64 _seed = uint64(sha3(sha3(block.blockhash(block.number), _amount), now)) % 100;\n        \n        if (_seed == 99) {\n            return legendaryCardPrototypes[uint64(sha3(sha3(block.blockhash(block.number), _amount), now)) % legendaryCardPrototypes.length];\n\n        }\n        \n        if(_seed >= 85 && _seed <= 98) {\n            return epicCardPrototypes[uint64(sha3(sha3(block.blockhash(block.number), _amount), now)) % epicCardPrototypes.length];\n        }\n        \n        if(_seed >= 50 && _seed <= 84) {\n            return rareCardPrototypes[uint64(sha3(sha3(block.blockhash(block.number), _amount), now)) % rareCardPrototypes.length];\n        }\n        \n        else {\n            return commonCardPrototypes[uint64(sha3(sha3(block.blockhash(block.number), _amount), now)) % commonCardPrototypes.length];\n        }\n    }\n    \n    function getRandomCardFromSet(uint32 _setId) internal returns(uint32) {\n        return cardSetArrays[_setId][uint64(sha3(sha3(block.blockhash(block.number), _setId), now)) % cardSetArrays[_setId].length];\n    }\n    \n    function getCardSetArrayLength(uint32 _setId) public view returns(uint256) {\n        return cardSetArrays[_setId].length;\n    }\n    \n    function getCardSetArrayCard(uint32 _setId, uint256 _index) public view returns(uint32) {\n        return cardSetArrays[_setId][_index];\n    }\n    \n    function getOwnerArray(address _address) public view returns(uint256[]) {\n        return ownerToTokenIdArray[_address];\n    }\n    \n    function getOwnerCardSetArray(address _address, uint32 _setId) public view returns(uint32[]) {\n        return ownerToCardSetArray[_address][_setId];\n    }\n    \n    function getOwnerCardSetArrayCard(address _address, uint32 _setId, uint256 _index) public view returns(uint32) {\n        return ownerToCardSetArray[_address][_setId][_index];\n    }\n    \n    function getTotemUsed(uint256 _tokenId, uint32 _setId) public view returns(bool) {\n        return totemUsed[_tokenId][_setId];\n    }\n\n    function getCardRarityCount(uint256 _rarity) public view returns(uint256) {\n        if (_rarity == 0) {\n            return totemCardPrototypes.length;\n        }\n        if (_rarity == 1) {\n            return commonCardPrototypes.length;\n        }\n        if (_rarity == 2) {\n            return rareCardPrototypes.length;\n        }\n        if (_rarity == 3) {\n            return epicCardPrototypes.length;\n        }\n        if (_rarity == 4) {\n            return legendaryCardPrototypes.length;\n        }\n        if (_rarity == 100) {\n            return promoCardPrototypes.length;\n        }\n        if (_rarity == 200) {\n            return artCardPrototypes.length;\n        }\n    }\n\n    function getCardRarityArray(uint256 _rarity) public view returns(uint32[]) {\n        if (_rarity == 0) {\n            return totemCardPrototypes;\n        }\n        if (_rarity == 1) {\n            return commonCardPrototypes;\n        }\n        if (_rarity == 2) {\n            return rareCardPrototypes;\n        }\n        if (_rarity == 3) {\n            return epicCardPrototypes;\n        }\n        if (_rarity == 4) {\n            return legendaryCardPrototypes;\n        }\n        if (_rarity == 100) {\n            return promoCardPrototypes;\n        }\n        if (_rarity == 200) {\n            return artCardPrototypes;\n        }\n    }\n\n    function getCardByRarity(uint256 _rarity, uint256 _index) public view returns(uint32) {\n        if (_rarity == 0) {\n            return totemCardPrototypes[_index];\n        }\n        if (_rarity == 1) {\n            return commonCardPrototypes[_index];\n        }\n        if (_rarity == 2) {\n            return rareCardPrototypes[_index];\n        }\n        if (_rarity == 3) {\n            return epicCardPrototypes[_index];\n        }\n        if (_rarity == 4) {\n            return legendaryCardPrototypes[_index];\n        }\n        if (_rarity == 100) {\n            return promoCardPrototypes[_index];\n        }\n        if (_rarity == 200) {\n            return artCardPrototypes[_index];\n        }\n    }\n\n    function claimSales(uint256 _auctionId) public payable {\n        //Allow an auction owner to claim owed sales from an auction\n\n        //Sender should be auction owner\n        //Auction should be closed (inactive)\n        //Auction should have balanceOwed\n        //Must wait at least 7 blocks before claiming auction balance owed\n        //Contract balance owed must be >= requested amount\n        //Contract balance must be >= requested amount\n\n        auctionPrototype auction = auctionIdToAuction[_auctionId];\n        require(msg.sender == auctionIdToOwner[_auctionId]);\n        require(auctionActive[_auctionId] == false);\n        require(auction.balanceOwed > 0 wei);\n        require(auctionIdToBalanceOwed[_auctionId] > 0 wei);\n        require(auction.lastActiveBlock + 6 < block.number);\n        require(contractBalanceOwed >= auction.balanceOwed);\n        require(address(this).balance >= auction.balanceOwed);\n\n        //Update contract balance owed\n        contractBalanceOwed = contractBalanceOwed - auction.balanceOwed;\n\n        //Clear auction balance owed\n        uint256 balanceTemp = auction.balanceOwed;\n        auctionIdToAuction[_auctionId].lastActiveBlock = block.number;\n        auctionIdToAuction[_auctionId].balanceOwed = 0;\n        auctionIdToBalanceOwed[_auctionId] = 0;\n        \n        //Transfer value\n        msg.sender.transfer(balanceTemp);\n    }\n    \n    /* ----------------------- Modifiers -----------------------*/\n    //Owner is only one who can cash out ether\n    //Owner is only one who can add admin\n    //Owner is only one who can assign governance access\n    //Admin don't do nothin right now..\n    //Governance is for a separate contract that will allow voting on new cards and card attributes\n    //Governance and owner are only ones who can create and modify card prototypes\n    \n    modifier onlyOwner() {\n        require(msg.sender == owner); \n        _;\n    }\n    \n    modifier onlyAdmin() {\n        require(admin[msg.sender]);\n        _;\n    }\n    \n    modifier onlyGovernance() {\n        require(governance[msg.sender]);\n        _;\n    }\n    \n    /* ----------------------- Administrative Functions -----------------------*/\n    // Payable fallback function \n    // Owner can cash out contract ether to another address (parameter value in wei)\n    // Owner can set another owner, set admin, remove admin, set governance, remove governance \n    // The governance contract will be a voting system allowing players to vote on new cards and modify existing cards\n    // Owner can set price of cards in packs (cardPackPrice)\n    // Owner can set price of individual cards (cardPrices[card])\n    // Owner can set maximum number of cards that can be purchased in a pack\n    // Owner can set whether totem use is allowed (turned off during new set addition)\n    // Owner can set the art address that tracks fine art prints associated with Merkle Bros\n    // Governance can set the art url that links to art and other metadata for a given cardPrototypeId\n    // Owner can set the auction address \n    // Owner can set the flag for whether to allow auction delegation to another contract\n    // Owner can set the fee for the auction house to collect when a purchase is made from another player\n    // Owner can set an upgrade contract if this one is deprecated\n    // Governance can set whether free transfers are allowed\n    \n    function () payable public {\n        //Only owner can send money to contract (let's not take people's money if they aren't buying anything)\n        require(msg.sender == owner);\n    }\n    \n    function cashOut(address _to, uint256 _value) public payable onlyOwner() {\n        _to.transfer(_value);\n    } \n    \n    function setOwner(address _owner) onlyOwner() public {\n        owner = _owner;\n    }\n    \n    function setAdmin(address _admin) onlyOwner() public {\n        admin[_admin] = true;\n    }\n    \n    function removeAdmin(address _admin) onlyOwner() public {\n        delete admin[_admin];\n    }\n    \n    function setGovernance(address _governance) onlyOwner() public {\n        governance[_governance] = true;\n    }\n    \n    function removeGovernance(address _governance) onlyOwner() public {\n        delete governance[_governance];\n    }\n    \n    function setCardPackPrice(uint256 _price) onlyOwner() public {\n        cardPackPrice = _price;\n    }\n    \n    function setCardPriceAndAmount(uint32 _cardPrototypeId, uint256 _price, uint256 _amount) onlyOwner() public {\n        cardPrices[_cardPrototypeId] = _price;\n        cardAmounts[_cardPrototypeId] = _amount;\n    }\n    \n    function setCardPackAmount(uint256 _amount) onlyOwner() public {\n        cardPackAmount = _amount;\n    }\n    \n    function setAllowTotem(bool _allow) onlyGovernance() public {\n        allowTotem = _allow;\n    }\n    \n    function setArtAddress(address _address) onlyOwner() public {\n        artAddress = _address;\n    }\n    \n    function setArtUrl(uint32 _cardPrototypeId, bytes32 _url) onlyGovernance() public {\n        artUrl[_cardPrototypeId] = _url;\n    }\n\n    function setAuctionAddress(address _address) onlyOwner() public {\n        auctionAddress = _address;\n    }\n\n    function setDelegateAuction(bool _delegate) onlyOwner() public {\n        delegateAuction = _delegate;\n    }\n\n    function setAuctionFee(uint256 _price) onlyOwner() public {\n        auctionFee = _price;\n    }\n\n    function upgradeContract(address _address) onlyOwner() public {\n        upgradeAddress = _address;\n    }\n\n    function setFreeTransfer(bool _setting) onlyGovernance() public {\n        freeTransferAllowed = _setting;\n    }\n\n    function setTransferFee(uint256 _fee) onlyGovernance() public {\n        transferFee = _fee;\n    }\n    \n    /* ----------------------- Struct for Card Prototype -----------------------*/\n    // Card prototypes represent generic cards (a card plan, not a card instance). Instances of cards are represented by ERC-721 tokens which are mapped to a card prototype in tokenIdToCardPrototypeId;\n    // Governance system (separate contract) will allow for voting on and modifying card prototypes\n    // cardPrototypeId - Unique id\n    // cardSet - Each card belongs to a set with similar themes ex Set 1 - 'Illustrations of Happy the Herbalist'. ALl totems belong to the 0th set, all promo cards to 9999th set, all fine art prints belong to 9000th set.\n    // cardRarity - Current rarities are common(1), rare(2), epic(3), legendary(4), totems (0), promo(100), art(200)\n    // cardActionPointCost - All cards have an action point cost to play\n    // cardAttackValue - Fighter cards have an attack value, this should be 0 for resources\n    // cardHealthValue - Fighter cards have a health value, this should be 0 for resources\n    // cardActionOne - A key for the actions mapping that describes this action.\n    // cardActionTwo - Cards can have up to three actions from the actions mapping\n    // cardActionThree\n    // cardActionOneValue - Value for the corresponding action ex 2 - 'Heal a friend for 2 health'\n    // cardActionTwoValue\n    // cardActionThreeValue\n    // cardTitle - Title of card, ex \"The Wizards of Ethereum\"\n    // cardArtist - Name of illustrator for the card art\n    \n    struct cardPrototype {\n        uint32 cardPrototypeId;\n        uint32 cardSet;\n        uint8 cardRarity;\n        uint8 cardActionPointCost; \n        uint8 cardAttackValue;\n        uint8 cardHealthValue; \n        uint8 cardActionOne; \n        uint8 cardActionTwo;\n        uint8 cardActionThree;\n        uint8 cardActionOneValue; \n        uint8 cardActionTwoValue;\n        uint8 cardActionThreeValue;\n        bytes32 cardTitle; \n        bytes32 cardArtist; \n    }\n\n    /* ----------------------- Struct for auctionPrototype -----------------------*/\n    // Auctions allow players to list tokens for sale with a 'buy-now' price. \n    // auctionId - Unique id, incremented when an auction is created\n    // tokenId - Unique id of the card to be sold.\n    // price - Listing price for the card to be sold.\n    // lastActiveBlock - Last block where auction was interacted with\n    // balanceOwed - Balance owed to auction owner from contract for successful auction\n    // owner - Address of auction creator and owner of token for sale\n    // cardPrototypeId - Card prototype of card to be sold.\n    // auctionActive - Whether auction is active (allows others to buy listed card)\n\n    struct auctionPrototype {\n        uint256 auctionId;\n        uint256 tokenId;\n        uint256 price;\n        uint256 lastActiveBlock;\n        uint256 balanceOwed;\n        address owner;\n        uint32 cardPrototypeId;\n        bool auctionActive;\n    }\n\n    /* ----------------------- Mappings -----------------------*/\n    //admin: Return whether an address has administrative rights\n    //governance: Return whether an address has governance rights\n    //artUrl: Return a url where art and other metadata for a given cardPrototypeId are stored\n    //balances: How many tokens an address has\n    //tokenIdToCardPrototypeId: Return a card prototype given a tokenId\n    //cardPrototytpeIdToCardPrototype: A really long named mapping. Return cardPrototype instance given cardPrototypeId\n    //cardPrototypeIdToNumberMinted: Return number of tokens that have been minted with a given cardPrototypeId\n    //cardPrices: Return an individual card price given a cardPrototypeId\n    //cardAmounts: Return how many of a card can be minted. This is only available for cards that have had their prices individually set by owner\n    //cardActions: Return a card action (bytes32 string) given a key (uint8). Card actions are possible actions associated with playing a card (ex draw from deck, heal a friend, damage an enemy, etc)\n    //cardSetArrays: Return an array of cardPrototypeIds that make up a set given a set id\n    //cardSetToRarity: Return the rarity of a given set id\n    //ownerToCardSetArray: Return what cards are owned (cardPrototypeId) in a given set by a given owner. Owner can use this to claim a totem if they have all cards in a set\n    //cardSetToTotem: Return a totem (cardPrototypeId) that represents a given set id\n    //totemToRarity: Return the rarity associated with a given totem(cardPrototypeId) (rarity is the rarity of cards that a totem generates)\n    //totemUsed: Return whether a totem instance (tokenId) has been used to claim a card from a given set\n    //tokenIdToOwner: Return address given tokenId\n    //tokenIdToApproved: Return approved address given a tokenId\n    //ownerToTokenIdArray: Return tokenId given an address\n    //tokenIdToOwnerArrayIndex: Return index in owner's token array given tokenId\n    //auctionIdToAuction: Return an auctionPrototype given an auctionId\n    //auctionIdToTokenId: Return a tokenId given an auctionId\n    //tokenIdToAuctionId: Return an auctionId given an tokenId\n    //auctionIdToOwner: Return an auction owner given an auctionId\n    //auctionIdToPrice: Return a sale price given an auctionId\n    //auctionIdToCardPrototypeId: Return a cardPrototypeId given an auctionId\n    //auctionActive: Return whether an auction is active (boolean) given an auctionId\n    //auctionIdToBalanceOwed: Return balanceOwed to auction owner given an auctionId\n    \n    mapping (address => bool) public admin;\n    mapping (address => bool) public governance;\n    mapping (uint32 => bytes32) public artUrl;\n    mapping (address => uint256) public balances;\n    mapping (uint256 => uint32) public tokenIdToCardPrototypeId;\n    mapping (uint32 => cardPrototype) public cardPrototytpeIdToCardPrototype;\n    mapping (uint32 => uint256) public cardPrototypeIdToNumberMinted;\n    mapping (uint32 => uint256) public cardPrices;\n    mapping (uint32 => uint256) public cardAmounts;\n    mapping (uint8 => bytes32) public cardActions;\n    mapping (uint32 => bytes32) public setTitles;\n    mapping (uint32 => bool) public setExists;\n    mapping (uint32 => uint32[]) public cardSetArrays;\n    mapping (uint32 => uint8) public cardSetToRarity;\n    mapping (address => mapping(uint32 => uint32[])) ownerToCardSetArray;\n    mapping (uint32 => uint32) public cardSetToTotem;\n    mapping (uint32 => uint8) public totemToRarity;\n    mapping (uint256 => mapping(uint32 => bool)) public totemUsed;\n    mapping (uint256 => address) public tokenIdToOwner;\n    mapping (uint256 => address) public tokenIdToApproved;\n    mapping (address => uint256[]) public ownerToTokenIdArray;\n    mapping (uint256 => uint256) public tokenIdToOwnerArrayIndex;\n    mapping (uint256 => auctionPrototype) public auctionIdToAuction;\n    mapping (uint256 => uint256) public auctionIdToTokenId;\n    mapping (uint256 => uint256) public tokenIdToAuctionId;\n    mapping (uint256 => address) public auctionIdToOwner;\n    mapping (uint256 => uint256) public auctionIdToPrice;\n    mapping (uint256 => uint32) public auctionIdToCardPrototypeId;\n    mapping (uint256 => bool) public auctionActive;\n    mapping (uint256 => uint256) public auctionIdToBalanceOwed;\n    \n    //Arrays for tracking whether cardPrototypeIds are common, rare, epic, legendary, totem, promotional, or art\n    //Used to generate random cards when buying packs (common, rare, epic, lengendary)\n    //Promo and art cards may be purchased after setting price and amount via buyCard function\n    uint32[] commonCardPrototypes;\n    uint32[] rareCardPrototypes;\n    uint32[] epicCardPrototypes;\n    uint32[] legendaryCardPrototypes;\n    uint32[] totemCardPrototypes;\n    uint32[] promoCardPrototypes;\n    uint32[] artCardPrototypes;\n    \n    /* ----------------------- ERC-721 Functions -----------------------*/\n    //Functions to implement ERC-721 requirements\n    //See https://github.com/ethereum/EIPs/issues/721\n    //Functions for name, symbol, supply, balances of tokens, owner of a token\n    //Functions for approval, taking ownership, and transfering tokens\n    //ownerOf: Check owner of a token\n    //tokenOfOwnerByIndex: Return a tokenId given an owner and an index in ownerToTokenIdArray\n    //approve: Function for approving another address to take ownership of a token. Only one address can have approval.\n    //Approval event must fire on setting new approval, changing approval, reaffirming (self) approval, and clearing approval \n    //takeOwnership: Function for allowing an approved address to claim ownership of a token\n    //takeOwnerhsip is just a series of requires() before calling _transfer function\n    //transfer: Default transfer function for ERC-721. Should be called by token owner\n    //_transfer: Modified internal transfer function to accomodate takeOwnership and transfer\n\n    function name() public pure returns (string){\n        return \"Merkle Bros\";\n    }\n    \n    function symbol() public pure returns (string) {\n        return \"MRKLBROS\";\n    }\n    \n    function totalSupply() public view returns (uint256) {\n        return tokenCount - 1;\n    }\n    \n    function balanceOf(address _owner) public view returns (uint256) {\n        return balances[_owner];\n    }\n    \n    function ownerOf(uint256 _tokenId) public view returns (address) {\n        require(tokenIdToOwner[_tokenId] != 0);                 //Token cannot be owned by 0 address (means token was destroyed)\n        require(_tokenId < tokenCount);                         //Check if token exists\n        return tokenIdToOwner[_tokenId];\n    }\n    \n    function tokenOfOwnerByIndex(address _owner, uint256 _index) public view returns (uint256) {\n        require(_index < ownerToTokenIdArray[_owner].length);\n        return ownerToTokenIdArray[_owner][_index];\n    }\n    \n    function approve(address _to, uint256 _tokenId) {\n        require(ownerOf(_tokenId) == msg.sender);               //Check if token owner is calling function\n        require(_tokenId < tokenCount);                         //Check if token exists / is tracked by this contract\n        require(msg.sender != _to);                             //Cannot approve yourself\n        \n        if (_to == 0 && tokenIdToApproved[_tokenId] != 0) {     //Owner may clear approval by approving the 0 address\n            delete tokenIdToApproved[_tokenId];\n            emit Approval(msg.sender, 0, _tokenId);\n            return;\n        }\n\n        if (_to == tokenIdToApproved[_tokenId]) {               //Owner can reaffirm approval (just fire Approval event again)\n            emit Approval(msg.sender, _to, _tokenId);\n            return;\n        }\n\n        else {                                                  //Owner can set a new approval\n            tokenIdToApproved[_tokenId] = _to;\n            emit Approval(msg.sender, _to, _tokenId);\n        }\n    }\n    \n    function takeOwnership(uint256 _tokenId) public  {\n        require(tokenIdToApproved[_tokenId] == msg.sender);            //Message sender should be approved to take ownership\n        require(_tokenId < tokenCount);                                //Check if token exists / is tracked by this contract\n        require(msg.sender != tokenIdToOwner[_tokenId]);               //Owner cannot take ownership of a token they already own\n        _transfer(tokenIdToOwner[_tokenId], msg.sender, _tokenId);     //Call transfer function\n    }\n\n    function payTransfer(address _to, uint256 _tokenId) external payable {\n        //Free transfers may be turned off to prevent people endlessly spawning totems\n        require(msg.value >= transferFee);                             //Owner must pay fee to transfer\n        require(_to != address(this));                                 //Prevent sending cards to the contract address\n        require(ownerOf(_tokenId) == msg.sender);                      //Only token owner can call default transfer function, approval is implicit here so no need to call approve\n\n        _transfer(msg.sender, _to, _tokenId);\n    }\n    \n    function transfer(address _to, uint256 _tokenId) external {\n        require(freeTransferAllowed);                                  //Free transfers must be allowed\n        require(_to != address(this));                                 //Prevent sending cards to the contract address\n        require(ownerOf(_tokenId) == msg.sender);                      //Only token owner can call default transfer function, approval is implicit here so no need to call approve\n        \n        _transfer(msg.sender, _to, _tokenId);\n    }\n    \n    function _transfer(address _from, address _to, uint256 _tokenId) internal {\n        require(ownerOf(_tokenId) == _from);\n        require(_to != address(0));\n        \n        tokenIdToOwner[_tokenId] = _to;             //Transfer token\n        delete tokenIdToApproved[_tokenId];         //Clear approved for next owner\n        \n        //Updating token array and index for old owner\n        //This finds the array element to delete, sets it to the value of the last array element\n        //and then deletes the last array element and decrements array length\n        //See https://medium.com/@robhitchens/solidity-crud-part-2-ed8d8b4f74ec\n        uint256 indexToDelete = tokenIdToOwnerArrayIndex[_tokenId];\n        uint256 arrayLength = ownerToTokenIdArray[_from].length;\n        uint256 movingArrayElement = ownerToTokenIdArray[_from][arrayLength - 1];\n        \n        ownerToTokenIdArray[_from][indexToDelete] = movingArrayElement;\n        tokenIdToOwnerArrayIndex[movingArrayElement] = indexToDelete;\n        delete ownerToTokenIdArray[_from][arrayLength - 1]; \n        ownerToTokenIdArray[_from].length--;\n        \n        balances[_from]--;\n        \n        //Updating token array and array index for new owner\n        ownerToTokenIdArray[_to].push(_tokenId);\n        tokenIdToOwnerArrayIndex[_tokenId] = ownerToTokenIdArray[_to].length - 1;\n        balances[_to]++;\n\n        //Start of logic relating to totems and tracking owned cards in a set\n        //This section checks whether _to already owns an instance of this card\n        //This is tracked so that _to can claim a totem from the contract if they own all cards in a set\n        \n        uint32 cardPrototypeId = tokenIdToCardPrototypeId[_tokenId];\n\n        //Set that transfered card belongs to\n        uint32 set = cardPrototytpeIdToCardPrototype[cardPrototypeId].cardSet;\n        uint32[] ownedCardsInSet = ownerToCardSetArray[_to][set];                  //An array of cardPrototypeIds representing cards in this set that _owner owns\n        bool owned = false;                                                        //Flag for whether owner already owns an instance of this card\n        \n        //Checking if owner already has this card\n        if (ownedCardsInSet.length != 0) {\n          for (uint256 i = 0; i < ownedCardsInSet.length; i++) {\n              if (ownedCardsInSet[i] == cardPrototypeId) {\n                //owner already owns this card, no need to check further\n                owned = true;\n                break;\n                }\n            }\n        }\n        \n        //If owner did not own card, push card to array in ownerToCardSetArray\n        if (owned == false) {\n          ownerToCardSetArray[_to][set].push(cardPrototypeId);\n        }\n        \n        emit Transfer(_from, _to, _tokenId);\n    }\n    \n  /* ----------------------- Card Management Functions -----------------------*/\n  //Functions for managing cards including buying, minting, and auctions\n  //buyCard - Buy a specific card by paying the card price set by owner\n  //buyCards - Buy a pack of cards by specifying amount of cards and paying cardPackPrice * amount\n  //mintCard - Mints an ERC-721 token (tokenId) representing a card instance\n  //mintCardOwner - Owner can mint promo and art cards for giveaways\n  //claimTotem - Owner can claim a totem if they have all cards of a given set\n  //useTotem - Use a totem to claim a random card from a given set\n  //createCardPrototype - Create a new cardPrototype, only callable by owner and governance contract\n  //modifyCardPrototype - Modify an existing card prototype, only callable by owner and governance contract\n  //createSet - Mark a set as existing with setExists, give set a title with setTitles, set rarity with cardSetToRarity\n  //setTotemToSet - Set the totem that a player can claim after collecting all cards in a given set\n  //createAction - Create an action to use for card prototypes. These will require logic server-side (for game), so only contract owner can modify these\n  //createAuction - Create an auction given a price and tokenId\n  //closeAuction - Close an auction given an auctionId (public callable only by auction owner)\n  //_closeAuction - Close an auction when a card is sold via buyAuction (internal callable only in buyAuction)\n  //buyAuction - Player buys a specific card by paying the auction price. This closes the auction.\n  \n    function buyCard(uint32 _cardPrototype) public payable {\n        require(cardPrices[_cardPrototype] <= msg.value);            //Buyer must pay at least the purchase price\n        require(cardPrices[_cardPrototype] != 0);                    //Can only buy cards that have prices set\n        require(cardAmounts[_cardPrototype] > 0);                    //Must be cards available to buy\n        \n        cardAmounts[_cardPrototype]--;\n        mintCard(msg.sender, _cardPrototype);\n    }\n    \n    function buyCards(uint256 _amount) public payable {\n        require(_amount <= cardPackAmount);                    //Buyer can only buy up to as many cards per pack as is allowed\n        require(cardPackPrice * _amount <= msg.value);         //Buyer must pay at least the purchase price\n\n        for (uint256 i = 0; i < _amount; i++) {                //Generate _amount of random cards and mint them\n            mintCard(msg.sender, getRandomCard(_amount + i));\n        }\n    }\n    \n    function mintCard(address _owner, uint32 _cardPrototype ) internal {\n      \n        //Start of logic relating to totems and tracking owned cards in a set\n        //This section checks whether _owner already owns an instance of this card\n        //This is tracked so that _owner can claim a totem from the contract if they own all cards in a set\n        \n        uint32 set = cardPrototytpeIdToCardPrototype[_cardPrototype].cardSet;         //Set that the minted card belongs to\n        uint32[] ownedCardsInSet = ownerToCardSetArray[_owner][set];                  //An array of cardPrototypeIds representing cards in this set that _owner owns\n        bool owned = false;                                                           //Flag for whether owner already owns an instance of this card\n        \n        //Checking if owner already has this card\n        if (ownedCardsInSet.length != 0) {\n          for (uint256 i = 0; i < ownedCardsInSet.length; i++) {\n              if (ownedCardsInSet[i] == _cardPrototype) {\n                //owner already owns this card, no need to check further\n                owned = true;\n                break;\n                }\n            }\n        }\n        \n        //If owner did not own card, push card to array in ownerToCardSetArray\n        if (owned == false) {\n          ownerToCardSetArray[_owner][set].push(_cardPrototype);\n        }\n        \n        //End of logic relating to totems and tracking owned cards in a set\n        \n        //Updating data structures related to owner and token\n        tokenIdToOwner[tokenCount] = _owner;\n        ownerToTokenIdArray[_owner].push(tokenCount);\n        tokenIdToOwnerArrayIndex[tokenCount] = ownerToTokenIdArray[_owner].length - 1;\n        tokenIdToCardPrototypeId[tokenCount] = _cardPrototype;\n        balances[_owner]++;\n        \n        //temp to store token count for event\n        uint256 tempTokenCount = tokenCount;\n        tokenCount++;\n\n        cardPrototypeIdToNumberMinted[_cardPrototype] = cardPrototypeIdToNumberMinted[_cardPrototype] + 1;\n\n        //Emit events (MintCard for normal token) and also MintArtCard if the cardPrototype belongs to the art set (set 9000, rarity 200)\n        \n        if (set == 9000) {\n            emit MintArtCard(_owner, tempTokenCount, _cardPrototype);\n        }\n        emit MintCard(_owner, tempTokenCount, _cardPrototype);\n    }\n\n    function mintCardOwner(address _to, uint256 _amount, uint32 _cardPrototype) public onlyOwner() {\n\n        //Owner can mint promo and art cards (and only these types of cards)\n        require(cardPrototytpeIdToCardPrototype[_cardPrototype].cardRarity == 100 || cardPrototytpeIdToCardPrototype[_cardPrototype].cardRarity == 200);\n\n        //Mint cards\n        for (uint256 i = 0; i < _amount; i++) {                //Generate _amount of cards and mint them\n            mintCard(_to, _cardPrototype);\n        }\n    }\n  \n    function claimTotem(uint32 _setId) public { \n        //Player can claim a set's totem if they have all cards in the set\n        \n        require(_setId != 0);                                              //Can't claim totem from the totem set (set 0)\n        require(setExists[_setId]);                                        //Set should exist\n        require(cardSetArrays[_setId].length != 0);                        //Can't claim totem from a set that has no cards\n        \n        uint32 totemId = cardSetToTotem[_setId];                           //Totem associated with this set        \n        require(totemId != 0);                                             //Set should have a totem assigned to it\n        \n        uint32[] ownedCards = ownerToCardSetArray[msg.sender][_setId];     //Owned cards in set\n        require(ownedCards.length == cardSetArrays[_setId].length);        //Player should own all cards in the set (duplicates are prevented in mintCards)\n\n        uint32[] ownedTotems = ownerToCardSetArray[msg.sender][0];         //Array of owned totems (all totems belong to set 0)\n        for (uint256 i = 0; i < ownedTotems.length; i++) {\n            require(ownedTotems[i] != totemId);                            //Player should not already own the totem for this set\n        }\n        mintCard(msg.sender, totemId);\n    }\n    \n    function useTotem(uint256 _totemId, uint32 _setId) public {\n        //Use totem to generate a card of a certain rarity from a given set\n        \n        //Totem use must be enabled\n        //Caller must own this totem\n        //Totems cannot be used to generate from set 0 (totems belong to set 0), and can only generate from existing sets\n        //Totem must not have been used to claim a card from this set already\n        //Totem must be an existing token (tokenIds are 1 to tokenCount - 1)\n        require(allowTotem);\n        require(tokenIdToOwner[_totemId] == msg.sender);\n        require(_setId != 0 && setExists[_setId]);\n        require(!totemUsed[_totemId][_setId]);\n        require(_totemId > 0 && _totemId < tokenCount);\n        \n        uint32 cardPrototypeId = tokenIdToCardPrototypeId[_totemId];\n        \n        //_totemId must be a totem (totems have rarity == 0)\n        //The card rarity that the totem generates must be the same as the set rarity to generate from (cardActionPointCost is overriden for tracking this)\n        require(cardPrototytpeIdToCardPrototype[cardPrototypeId].cardRarity == 0); \n        require(cardPrototytpeIdToCardPrototype[cardPrototypeId].cardActionPointCost == cardSetToRarity[_setId]);\n        \n        mintCard(msg.sender, getRandomCardFromSet(_setId));\n        totemUsed[_totemId][_setId] = true;\n\n        emit UseTotem(msg.sender, _totemId, _setId);\n    }\n  \n    function createCardPrototype(\n        //Note, if creating a totem prototype, use _cardActionPointCost to set rarity of cards the totem will generate(1 = common, 2 = rare, 3 = epic)\n        //All other values for totems will be 0 except for _cardTitle and _cardArtist (0, 0, [1,2,3], [1,2,3..n], 0, 0, 0, 0, 0, 0, 0, _cardTitle, _cardArtist)\n        //Promo cards should be _cardRarity == 100 and _cardSet == 9999\n        //Fine art prints should be _cardRarity == 200 and _cardSet == 9000\n        uint32 _cardSet,\n        uint8 _cardRarity,\n        uint8 _cardActionPointCost,\n        uint8 _cardAttackValue,\n        uint8 _cardHealthValue,\n        uint8 _cardActionOne,\n        uint8 _cardActionTwo,\n        uint8 _cardActionThree, \n        uint8 _cardActionOneValue,\n        uint8 _cardActionTwoValue,\n        uint8 _cardActionThreeValue, \n        bytes32 _cardTitle, bytes32 _cardArtist) public onlyGovernance() {\n        \n        //Card rarity must be one of totems = 0, common = 1, rare = 2, epic = 3, legendary = 4, promo = 100, art = 200\n        require(_cardRarity == 0 || _cardRarity == 1 || _cardRarity == 2 || _cardRarity == 3 || _cardRarity == 4 || _cardRarity == 100 || _cardRarity == 200);\n            \n       //Only totem cards (rarity 0) belong to set 0 \n       if(_cardSet == 0) { require(_cardRarity == 0); } \n       \n       //Only promo cards (rarity 100) belong to set 9999\n       if(_cardSet == 9999) { require(_cardRarity == 100); } //Only promo cards can belong to set 9999      \n       \n       //Only art cards (rarity 200) belong to set 9000\n       if(_cardSet == 9000) { require(_cardRarity == 200); }\n\n       //Set should exist. If does not exist, add set using createSet. This was necessary because of 'stack too deep here'..\n       //Also card rarity should be the same as its set\n       require(setExists[_cardSet]);\n       require(_cardRarity == cardSetToRarity[_cardSet]);\n        \n       //Only allow setting actions that exist\n       require(_cardActionOne < cardActionsCount);\n       require(_cardActionTwo < cardActionsCount);\n       require(_cardActionThree < cardActionsCount);\n       \n       //Logic for updating totem data structures\n        if(_cardRarity == 0) {          \n            require(_cardSet == 0); //Totems belong to set 0\n            require(_cardActionPointCost == 1 || _cardActionPointCost == 2 || _cardActionPointCost == 3); //Totems can only generate common, rare, and epic cards\n            \n            //Store rarity of the sets that totem can generate a card from\n            totemToRarity[cardPrototypeCount] = _cardActionPointCost;\n\n            //Store totem in totems array\n            totemCardPrototypes.push(cardPrototypeCount);\n        }\n        \n        //Logic for updating common cards data structures\n        if(_cardRarity == 1) {\n\n            //Store card in common cards array\n            commonCardPrototypes.push(cardPrototypeCount);\n        }\n        \n        //Logic for updating rare cards data structures\n        if(_cardRarity == 2) {\n\n            //Store card in rare cards array\n            rareCardPrototypes.push(cardPrototypeCount);\n        }    \n        \n        //Logic for updating epic cards data structures\n        if(_cardRarity == 3) {\n\n            //Store card in epic cards array\n            epicCardPrototypes.push(cardPrototypeCount);\n        }\n        \n        //Logic for updating legendary cards data structures\n        if(_cardRarity == 4) {\n            \n            //Store card in legendary cards array\n            legendaryCardPrototypes.push(cardPrototypeCount);\n        }\n        \n\n        //Logic for updating promo card data structure\n        if(_cardRarity == 100) {\n            require(_cardSet == 9999);\n            \n            //Store promo card in promo cards array\n            promoCardPrototypes.push(cardPrototypeCount);\n        }\n\n        //Logic for updating art card data structure\n        if(_cardRarity == 200) {\n            require(_cardSet == 9000);\n            \n            //Store art card in art cards array\n            artCardPrototypes.push(cardPrototypeCount);\n        }\n\n        \n        //Store card in its set\n        cardSetArrays[_cardSet].push(cardPrototypeCount);\n        \n        //Make a new cardPrototype\n        cardPrototytpeIdToCardPrototype[cardPrototypeCount] = cardPrototype(cardPrototypeCount, _cardSet, _cardRarity, _cardActionPointCost, _cardAttackValue, _cardHealthValue, _cardActionOne, _cardActionTwo, _cardActionThree, _cardActionOneValue, _cardActionTwoValue,  _cardActionThreeValue, _cardTitle, _cardArtist);\n\n        uint32 tempCount = cardPrototypeCount;      //Temp count so we can call event last\n        cardPrototypeCount++;\n        \n        emit CreateCardPrototype(msg.sender, tempCount);\n    }\n    \n    function modifyCardPrototype(\n        uint32 _cardPrototypeId, uint8 _cardActionPointCost, uint8 _cardAttackValue,\n        uint8 _cardHealthValue, uint8 _cardActionOne, uint8 _cardActionTwo, uint8 _cardActionThree, uint8 _cardActionOneValue,\n        uint8 _cardActionTwoValue, uint8 _cardActionThreeValue) \n        public onlyGovernance() {\n            \n        //Cannot delete card prototypes but can modify them by governance vote\n        //Can't modify card prototype id, card set, card rarity, card title, card artist\n        //Can modify action point cost, attack value, health value, card actions one, two three, card action values one, two , three\n        \n        //Card prototype should exist\n        //Cannot modify totems\n        //Updated actions must be actions that exist\n        require(_cardPrototypeId > 0 && _cardPrototypeId < cardPrototypeCount);\n        require(cardPrototytpeIdToCardPrototype[_cardPrototypeId].cardSet != 0);\n        require(_cardActionOne < cardActionsCount);\n        require(_cardActionTwo < cardActionsCount);\n        require(_cardActionThree < cardActionsCount);\n        \n        //Set new attributes (one at a time to avoid stack too deep)\n        cardPrototytpeIdToCardPrototype[_cardPrototypeId].cardActionPointCost = _cardActionPointCost;\n        cardPrototytpeIdToCardPrototype[_cardPrototypeId].cardAttackValue = _cardAttackValue;\n        cardPrototytpeIdToCardPrototype[_cardPrototypeId].cardHealthValue = _cardHealthValue;\n        cardPrototytpeIdToCardPrototype[_cardPrototypeId].cardActionOne = _cardActionOne;\n        cardPrototytpeIdToCardPrototype[_cardPrototypeId].cardActionTwo = _cardActionTwo;\n        cardPrototytpeIdToCardPrototype[_cardPrototypeId].cardActionThree = _cardActionThree;\n        cardPrototytpeIdToCardPrototype[_cardPrototypeId].cardActionOneValue = _cardActionOneValue;\n        cardPrototytpeIdToCardPrototype[_cardPrototypeId].cardActionTwoValue = _cardActionTwoValue;\n        cardPrototytpeIdToCardPrototype[_cardPrototypeId].cardActionThreeValue = _cardActionThreeValue;\n        \n        emit ModifyCardPrototype(msg.sender, _cardPrototypeId);\n    }\n\n    function createSet(uint32 _setId, bytes32 _setTitle, uint8 _cardRarity) public onlyGovernance() {\n        require(!setExists[_setId]);    //Set shouldn't already exist\n        setExists[_setId] = true;\n        setTitles[_setId] = _setTitle;\n        cardSetToRarity[_setId] = _cardRarity;\n\n        emit AddSet(msg.sender, _setId, _setTitle, _cardRarity);\n    }\n    \n    function setTotemToSet(uint32 _totemId, uint32 _setId) public onlyGovernance() {\n        //Require that the set exists\n        //Require that the set is the same rarity as the cards the totem will generate\n        require(setExists[_setId]);\n        require(totemToRarity[_totemId] == cardSetToRarity[_setId]);\n        cardSetToTotem[_setId] = _totemId;\n\n        emit SetTotemToSet(msg.sender, _totemId, _setId);\n    }    \n   \n    function createAction(bytes32 _action) public onlyOwner() {\n        \n        //New action should not already exist\n        for (uint8 i = 0; i < cardActionsCount; i++) {\n            require(cardActions[i] != _action);\n        }\n        \n        cardActions[cardActionsCount] = _action;\n        uint8 tempActionsCount = cardActionsCount; //Store actions count for event\n        \n        cardActionsCount++;\n        emit AddAction(msg.sender, tempActionsCount, _action);\n    }\n\n    function createAuction(uint256 _tokenId, uint256 _price) public {\n        //Function for creating an auction stuct and listing a card for sale\n        //    struct auctionPrototype {\n        //    uint256 auctionId;\n        //    uint256 tokenId;\n        //    uint256 price;\n        //    address owner;\n        //    uint32 cardPrototypeId;\n        //    bool auctionActive; }\n\n        //Require delegate auction is off\n        require(!delegateAuction);\n\n        //Require auction creator is owner of this token\n        require(ownerOf(_tokenId) == msg.sender);\n\n        //Require token exists\n        require(_tokenId > 0 && _tokenId < 2**255);\n\n        //Require auction price is >0 and < 2^255\n        require(_price > 0 && _price < 2**255);\n\n        uint256 auctionId = tokenIdToAuctionId[_tokenId];\n\n        //If auctionId == 0, token has never been auctioned before\n        //If token has been auctioned before, check that the last auction is inactive\n        if(auctionId != 0) {\n            auctionPrototype auction = auctionIdToAuction[auctionId];\n            require(auction.auctionActive != true);\n        }\n\n        //Create a new auction\n        auctionIdToAuction[auctionCount] = auctionPrototype(auctionCount, _tokenId, _price, block.number, 0, msg.sender, tokenIdToCardPrototypeId[_tokenId], true);\n\n        //Update auction mappings:\n        auctionIdToTokenId[auctionCount] = _tokenId;\n        tokenIdToAuctionId[_tokenId] = auctionCount;\n        auctionIdToOwner[auctionCount] = msg.sender;\n        auctionIdToPrice[auctionCount] = _price;\n        auctionIdToCardPrototypeId[auctionCount] = tokenIdToCardPrototypeId[_tokenId];\n        auctionActive[auctionCount] = true;\n\n        uint256 tempAuctionCount = auctionCount;\n        auctionCount++;\n\n        emit CreateAuction(msg.sender, tempAuctionCount, _tokenId);\n        emit SetAuctionPrice(tempAuctionCount, _price);\n    }\n\n    function closeAuction(uint256 _auctionId) public {\n        //Wrapper function for closing an auction used for auction owner to close auction without a sale\n\n        //Require delegate auction is off\n        require(!delegateAuction);\n\n        //Require auction exists\n        require(_auctionId > 0 && _auctionId < auctionCount);\n\n        //Require auction is active\n        require(auctionActive[_auctionId]);\n\n        //Require owner is auction owner\n        require(auctionIdToOwner[_auctionId] == msg.sender);\n\n        _closeAuction(_auctionId);\n    }\n\n    function _closeAuction(uint256 _auctionId) internal {\n        //Function for closing an auction, called by closeAuction and by buyAuction when an auction sale occurs\n\n        //Set auction inactive (mapping and auction instance)\n        auctionActive[_auctionId] = false;\n        auctionIdToAuction[_auctionId].auctionActive = false;\n\n        emit CloseAuction(_auctionId);\n    }\n\n    function buyAuction(uint256 _auctionId) public payable {\n        //Function for buying a listed card for the given price + auction house fee\n\n        //Require delegate auction is off\n        require(!delegateAuction);\n\n        //Require auction exists\n        require(_auctionId > 0 && _auctionId < auctionCount);\n\n        //Require auction is active\n        require(auctionActive[_auctionId]);\n\n        //Require auction price is >0 and < 2^255\n        require(msg.value > 0 && msg.value < 2**255);\n\n\n        //Require paid amount is == listing price + auction house fee\n        require(msg.value == auctionIdToPrice[_auctionId] + auctionFee);\n\n        //Maybe protecting against oveflows, make sure value sent is >= listing price\n        require(msg.value >= auctionIdToPrice[_auctionId]);\n\n        //Require caller is not the owner of the auction\n        require(auctionIdToOwner[_auctionId] != msg.sender);\n\n        //Close auction (set inactive)\n        _closeAuction(_auctionId);\n\n        //Transfer token to new owner\n        _transfer(auctionIdToOwner[_auctionId], msg.sender, auctionIdToTokenId[_auctionId]);\n\n        //Update auction balance owed to auction owner address (allow addresses to claim owed funds via new function)\n        auctionIdToAuction[_auctionId].balanceOwed = auctionIdToPrice[_auctionId];\n        auctionIdToBalanceOwed[_auctionId] = auctionIdToPrice[_auctionId];\n\n        auctionIdToAuction[_auctionId].lastActiveBlock = block.number;\n\n        //Update sum total owed for contract\n        contractBalanceOwed = contractBalanceOwed + auctionIdToPrice[_auctionId];\n\n        emit BuyAuction(msg.sender, _auctionId, auctionIdToPrice[_auctionId]);\n    }\n}",
  "sourcePath": "/home/patrickcrypt/eth/watch-events-truffle-express-node/merkle-brothers-website/contracts/MerkleBros.sol",
  "compiler": {
    "name": "solc",
    "version": "0.4.23+commit.124ca40d.Emscripten.clang"
  },
  "schemaVersion": "2.0.0",
  "updatedAt": "2018-07-31T00:37:21.521Z"
}